{
	"data": {
		"bytecode": {
			"linkReferences": {},
			"object": "6080604052670de0b6b3a764000060035534801561001b575f80fd5b50604051612a14380380612a14833981810160405281019061003d9190610266565b805f73ffffffffffffffffffffffffffffffffffffffff168173ffffffffffffffffffffffffffffffffffffffff16036100ae575f6040517f1e4fbdf70000000000000000000000000000000000000000000000000000000081526004016100a591906102b3565b60405180910390fd5b6100bd8161010c60201b60201c565b50600180819055508160025f6101000a81548173ffffffffffffffffffffffffffffffffffffffff021916908373ffffffffffffffffffffffffffffffffffffffff16021790555050506102cc565b5f805f9054906101000a900473ffffffffffffffffffffffffffffffffffffffff169050815f806101000a81548173ffffffffffffffffffffffffffffffffffffffff021916908373ffffffffffffffffffffffffffffffffffffffff1602179055508173ffffffffffffffffffffffffffffffffffffffff168173ffffffffffffffffffffffffffffffffffffffff167f8be0079c531659141344cd1fd0a4f28419497f9722a3daafe3b4186f6b6457e060405160405180910390a35050565b5f80fd5b5f73ffffffffffffffffffffffffffffffffffffffff82169050919050565b5f6101fa826101d1565b9050919050565b5f61020b826101f0565b9050919050565b61021b81610201565b8114610225575f80fd5b50565b5f8151905061023681610212565b92915050565b610245816101f0565b811461024f575f80fd5b50565b5f815190506102608161023c565b92915050565b5f806040838503121561027c5761027b6101cd565b5b5f61028985828601610228565b925050602061029a85828601610252565b9150509250929050565b6102ad816101f0565b82525050565b5f6020820190506102c65f8301846102a4565b92915050565b61273b806102d95f395ff3fe608060405234801561000f575f80fd5b5060043610610109575f3560e01c8063907b503d116100a0578063c20632ba1161006f578063c20632ba146102bf578063d004f0f7146102db578063e2bbb158146102f7578063f2fde38b14610313578063f525cb681461032f57610109565b8063907b503d1461021157806393f1a40b1461024157806398969e8214610273578063ae169a50146102a357610109565b8063441a3e70116100dc578063441a3e70146101af578063715018a6146101cb57806372f702f3146101d55780638da5cb5b146101f357610109565b80631526fe271461010d57806331276cf81461014157806334c1f9441461015f57806339739b9914610193575b5f80fd5b61012760048036038101906101229190611843565b61034d565b6040516101389594939291906118f7565b60405180910390f35b6101496103cc565b6040516101569190611b15565b60405180910390f35b61017960048036038101906101749190611843565b61052a565b60405161018a959493929190611b8c565b60405180910390f35b6101ad60048036038101906101a89190611be4565b610610565b005b6101c960048036038101906101c49190611be4565b610649565b005b6101d36109f0565b005b6101dd610a03565b6040516101ea9190611c22565b60405180910390f35b6101fb610a28565b6040516102089190611c3b565b60405180910390f35b61022b60048036038101906102269190611c7e565b610a4f565b6040516102389190611ca9565b60405180910390f35b61025b60048036038101906102569190611cc2565b610a64565b60405161026a93929190611d00565b60405180910390f35b61028d60048036038101906102889190611cc2565b610a95565b60405161029a9190611ca9565b60405180910390f35b6102bd60048036038101906102b89190611843565b610af8565b005b6102d960048036038101906102d49190611d70565b610cff565b005b6102f560048036038101906102f09190611dd4565b610e49565b005b610311600480360381019061030c9190611be4565b610fca565b005b61032d60048036038101906103289190611c7e565b611344565b005b6103376113c8565b6040516103449190611ca9565b60405180910390f35b6005818154811061035c575f80fd5b905f5260205f2090600502015f91509050805f015f9054906101000a900473ffffffffffffffffffffffffffffffffffffffff1690806001015f9054906101000a900473ffffffffffffffffffffffffffffffffffffffff16908060020154908060030154908060040154905085565b60606008805480602002602001604051908101604052809291908181526020015f905b82821015610521578382905f5260205f2090600502016040518060a00160405290815f820154815260200160018201548152602001600282015f9054906101000a900473ffffffffffffffffffffffffffffffffffffffff1673ffffffffffffffffffffffffffffffffffffffff1673ffffffffffffffffffffffffffffffffffffffff16815260200160038201805461048890611e3f565b80601f01602080910402602001604051908101604052809291908181526020018280546104b490611e3f565b80156104ff5780601f106104d6576101008083540402835291602001916104ff565b820191905f5260205f20905b8154815290600101906020018083116104e257829003601f168201915b50505050508152602001600482015481525050815260200190600101906103ef565b50505050905090565b60088181548110610539575f80fd5b905f5260205f2090600502015f91509050805f015490806001015490806002015f9054906101000a900473ffffffffffffffffffffffffffffffffffffffff169080600301805461058990611e3f565b80601f01602080910402602001604051908101604052809291908181526020018280546105b590611e3f565b80156106005780601f106105d757610100808354040283529160200191610600565b820191905f5260205f20905b8154815290600101906020018083116105e357829003601f168201915b5050505050908060040154905085565b6106186113ce565b5f6005838154811061062d5761062c611e6f565b5b905f5260205f2090600502019050818160030181905550505050565b610651611455565b5f6005838154811061066657610665611e6f565b5b905f5260205f20906005020190505f60075f8581526020019081526020015f205f3373ffffffffffffffffffffffffffffffffffffffff1673ffffffffffffffffffffffffffffffffffffffff1681526020019081526020015f20905082815f015411610708576040517f08c379a00000000000000000000000000000000000000000000000000000000081526004016106ff90611f0c565b60405180910390fd5b428160020154111561074f576040517f08c379a000000000000000000000000000000000000000000000000000000000815260040161074690611f74565b60405180910390fd5b5f61075a82866114a4565b90505f825f0154111561084857826001015f9054906101000a900473ffffffffffffffffffffffffffffffffffffffff1673ffffffffffffffffffffffffffffffffffffffff1663a9059cbb33836040518363ffffffff1660e01b81526004016107c5929190611f92565b6020604051808303815f875af11580156107e1573d5f803e3d5ffd5b505050506040513d601f19601f820116820180604052508101906108059190611fee565b506108478582336040518060400160405280600581526020017f436c61696d00000000000000000000000000000000000000000000000000000081525061153c565b5b5f8411156109975783825f015f8282546108629190612046565b9250508190555083836002015f82825461087c9190612046565b925050819055508360065f855f015f9054906101000a900473ffffffffffffffffffffffffffffffffffffffff1673ffffffffffffffffffffffffffffffffffffffff1673ffffffffffffffffffffffffffffffffffffffff1681526020019081526020015f205f8282546108f19190612079565b92505081905550825f015f9054906101000a900473ffffffffffffffffffffffffffffffffffffffff1673ffffffffffffffffffffffffffffffffffffffff1663a9059cbb33866040518363ffffffff1660e01b8152600401610955929190611f92565b6020604051808303815f875af1158015610971573d5f803e3d5ffd5b505050506040513d601f19601f820116820180604052508101906109959190611fee565b505b4282600101819055506109e18585336040518060400160405280600881526020017f576974686472617700000000000000000000000000000000000000000000000081525061153c565b5050506109ec611621565b5050565b6109f86113ce565b610a015f61162a565b565b60025f9054906101000a900473ffffffffffffffffffffffffffffffffffffffff1681565b5f805f9054906101000a900473ffffffffffffffffffffffffffffffffffffffff16905090565b6006602052805f5260405f205f915090505481565b6007602052815f5260405f20602052805f5260405f205f9150915050805f0154908060010154908060020154905083565b5f8060075f8581526020019081526020015f205f8473ffffffffffffffffffffffffffffffffffffffff1673ffffffffffffffffffffffffffffffffffffffff1681526020019081526020015f209050610aef81856114a4565b91505092915050565b610b00611455565b5f60058281548110610b1557610b14611e6f565b5b905f5260205f20906005020190505f60075f8481526020019081526020015f205f3373ffffffffffffffffffffffffffffffffffffffff1673ffffffffffffffffffffffffffffffffffffffff1681526020019081526020015f2090504281600201541115610bb9576040517f08c379a0000000000000000000000000000000000000000000000000000000008152600401610bb0906120f6565b60405180910390fd5b5f610bc482856114a4565b90505f8111610c08576040517f08c379a0000000000000000000000000000000000000000000000000000000008152600401610bff9061215e565b60405180910390fd5b428260010181905550826001015f9054906101000a900473ffffffffffffffffffffffffffffffffffffffff1673ffffffffffffffffffffffffffffffffffffffff1663a9059cbb33836040518363ffffffff1660e01b8152600401610c6f929190611f92565b6020604051808303815f875af1158015610c8b573d5f803e3d5ffd5b505050506040513d601f19601f82011682018060405250810190610caf9190611fee565b50610cf18482336040518060400160405280600581526020017f436c61696d00000000000000000000000000000000000000000000000000000081525061153c565b505050610cfc611621565b50565b610d076113ce565b60056040518060a001604052808673ffffffffffffffffffffffffffffffffffffffff1681526020018573ffffffffffffffffffffffffffffffffffffffff1681526020015f815260200184815260200183815250908060018154018082558091505060019003905f5260205f2090600502015f909190919091505f820151815f015f6101000a81548173ffffffffffffffffffffffffffffffffffffffff021916908373ffffffffffffffffffffffffffffffffffffffff1602179055506020820151816001015f6101000a81548173ffffffffffffffffffffffffffffffffffffffff021916908373ffffffffffffffffffffffffffffffffffffffff160217905550604082015181600201556060820151816003015560808201518160040155505060045f815480929190610e3e9061217c565b919050555050505050565b610e516113ce565b5f8273ffffffffffffffffffffffffffffffffffffffff166370a08231306040518263ffffffff1660e01b8152600401610e8b9190611c3b565b602060405180830381865afa158015610ea6573d5f803e3d5ffd5b505050506040513d601f19601f82011682018060405250810190610eca91906121d7565b905080821115610f0f576040517f08c379a0000000000000000000000000000000000000000000000000000000008152600401610f069061224c565b60405180910390fd5b60065f8473ffffffffffffffffffffffffffffffffffffffff1673ffffffffffffffffffffffffffffffffffffffff1681526020019081526020015f20548282610f599190612046565b1015610f9a576040517f08c379a0000000000000000000000000000000000000000000000000000000008152600401610f91906122b4565b60405180910390fd5b610fc533838573ffffffffffffffffffffffffffffffffffffffff166116eb9092919063ffffffff16565b505050565b610fd2611455565b5f8111611014576040517f08c379a000000000000000000000000000000000000000000000000000000000815260040161100b9061231c565b60405180910390fd5b5f6005838154811061102957611028611e6f565b5b905f5260205f20906005020190505f60075f8581526020019081526020015f205f3373ffffffffffffffffffffffffffffffffffffffff1673ffffffffffffffffffffffffffffffffffffffff1681526020019081526020015f2090505f815f01541115611336575f61109c82866114a4565b9050826001015f9054906101000a900473ffffffffffffffffffffffffffffffffffffffff1673ffffffffffffffffffffffffffffffffffffffff1663a9059cbb33836040518363ffffffff1660e01b81526004016110fc929190611f92565b6020604051808303815f875af1158015611118573d5f803e3d5ffd5b505050506040513d601f19601f8201168201806040525081019061113c9190611fee565b5061117e8582336040518060400160405280600581526020017f436c61696d00000000000000000000000000000000000000000000000000000081525061153c565b825f015f9054906101000a900473ffffffffffffffffffffffffffffffffffffffff1673ffffffffffffffffffffffffffffffffffffffff166323b872dd3330876040518463ffffffff1660e01b81526004016111dd9392919061233a565b6020604051808303815f875af11580156111f9573d5f803e3d5ffd5b505050506040513d601f19601f8201168201806040525081019061121d9190611fee565b5083836002015f8282546112319190612079565b9250508190555083825f015f82825461124a9190612079565b92505081905550428260010181905550603c836004015461126b919061236f565b426112769190612079565b82600201819055508360065f855f015f9054906101000a900473ffffffffffffffffffffffffffffffffffffffff1673ffffffffffffffffffffffffffffffffffffffff1673ffffffffffffffffffffffffffffffffffffffff1681526020019081526020015f205f8282546112ec9190612079565b925050819055506113348585336040518060400160405280600781526020017f4465706f7369740000000000000000000000000000000000000000000000000081525061153c565b505b5050611340611621565b5050565b61134c6113ce565b5f73ffffffffffffffffffffffffffffffffffffffff168173ffffffffffffffffffffffffffffffffffffffff16036113bc575f6040517f1e4fbdf70000000000000000000000000000000000000000000000000000000081526004016113b39190611c3b565b60405180910390fd5b6113c58161162a565b50565b60045481565b6113d661176a565b73ffffffffffffffffffffffffffffffffffffffff166113f4610a28565b73ffffffffffffffffffffffffffffffffffffffff16146114535761141761176a565b6040517f118cdaa700000000000000000000000000000000000000000000000000000000815260040161144a9190611c3b565b60405180910390fd5b565b60026001540361149a576040517f08c379a0000000000000000000000000000000000000000000000000000000008152600401611491906123fa565b60405180910390fd5b6002600181905550565b5f80600583815481106114ba576114b9611e6f565b5b905f5260205f20906005020190505f603c8560010154426114db9190612046565b6114e59190612445565b905081600401548111156114fb57816004015490505b8160030154606461016d83885f0154611514919061236f565b61151e9190612445565b6115289190612445565b611532919061236f565b9250505092915050565b60086040518060a001604052808681526020018581526020018473ffffffffffffffffffffffffffffffffffffffff16815260200183815260200142815250908060018154018082558091505060019003905f5260205f2090600502015f909190919091505f820151815f0155602082015181600101556040820151816002015f6101000a81548173ffffffffffffffffffffffffffffffffffffffff021916908373ffffffffffffffffffffffffffffffffffffffff160217905550606082015181600301908161160e9190612636565b5060808201518160040155505050505050565b60018081905550565b5f805f9054906101000a900473ffffffffffffffffffffffffffffffffffffffff169050815f806101000a81548173ffffffffffffffffffffffffffffffffffffffff021916908373ffffffffffffffffffffffffffffffffffffffff1602179055508173ffffffffffffffffffffffffffffffffffffffff168173ffffffffffffffffffffffffffffffffffffffff167f8be0079c531659141344cd1fd0a4f28419497f9722a3daafe3b4186f6b6457e060405160405180910390a35050565b611765838473ffffffffffffffffffffffffffffffffffffffff1663a9059cbb858560405160240161171e929190611f92565b604051602081830303815290604052915060e01b6020820180517bffffffffffffffffffffffffffffffffffffffffffffffffffffffff8381831617835250505050611771565b505050565b5f33905090565b5f8060205f8451602086015f885af180611790576040513d5f823e3d81fd5b3d92505f519150505f82146117a95760018114156117c4565b5f8473ffffffffffffffffffffffffffffffffffffffff163b145b1561180657836040517f5274afe70000000000000000000000000000000000000000000000000000000081526004016117fd9190611c3b565b60405180910390fd5b50505050565b5f80fd5b5f819050919050565b61182281611810565b811461182c575f80fd5b50565b5f8135905061183d81611819565b92915050565b5f602082840312156118585761185761180c565b5b5f6118658482850161182f565b91505092915050565b5f73ffffffffffffffffffffffffffffffffffffffff82169050919050565b5f819050919050565b5f6118b06118ab6118a68461186e565b61188d565b61186e565b9050919050565b5f6118c182611896565b9050919050565b5f6118d2826118b7565b9050919050565b6118e2816118c8565b82525050565b6118f181611810565b82525050565b5f60a08201905061190a5f8301886118d9565b61191760208301876118d9565b61192460408301866118e8565b61193160608301856118e8565b61193e60808301846118e8565b9695505050505050565b5f81519050919050565b5f82825260208201905092915050565b5f819050602082019050919050565b61197a81611810565b82525050565b5f61198a8261186e565b9050919050565b61199a81611980565b82525050565b5f81519050919050565b5f82825260208201905092915050565b8281835e5f83830152505050565b5f601f19601f8301169050919050565b5f6119e2826119a0565b6119ec81856119aa565b93506119fc8185602086016119ba565b611a05816119c8565b840191505092915050565b5f60a083015f830151611a255f860182611971565b506020830151611a386020860182611971565b506040830151611a4b6040860182611991565b5060608301518482036060860152611a6382826119d8565b9150506080830151611a786080860182611971565b508091505092915050565b5f611a8e8383611a10565b905092915050565b5f602082019050919050565b5f611aac82611948565b611ab68185611952565b935083602082028501611ac885611962565b805f5b85811015611b035784840389528151611ae48582611a83565b9450611aef83611a96565b925060208a01995050600181019050611acb565b50829750879550505050505092915050565b5f6020820190508181035f830152611b2d8184611aa2565b905092915050565b611b3e81611980565b82525050565b5f82825260208201905092915050565b5f611b5e826119a0565b611b688185611b44565b9350611b788185602086016119ba565b611b81816119c8565b840191505092915050565b5f60a082019050611b9f5f8301886118e8565b611bac60208301876118e8565b611bb96040830186611b35565b8181036060830152611bcb8185611b54565b9050611bda60808301846118e8565b9695505050505050565b5f8060408385031215611bfa57611bf961180c565b5b5f611c078582860161182f565b9250506020611c188582860161182f565b9150509250929050565b5f602082019050611c355f8301846118d9565b92915050565b5f602082019050611c4e5f830184611b35565b92915050565b611c5d81611980565b8114611c67575f80fd5b50565b5f81359050611c7881611c54565b92915050565b5f60208284031215611c9357611c9261180c565b5b5f611ca084828501611c6a565b91505092915050565b5f602082019050611cbc5f8301846118e8565b92915050565b5f8060408385031215611cd857611cd761180c565b5b5f611ce58582860161182f565b9250506020611cf685828601611c6a565b9150509250929050565b5f606082019050611d135f8301866118e8565b611d2060208301856118e8565b611d2d60408301846118e8565b949350505050565b5f611d3f82611980565b9050919050565b611d4f81611d35565b8114611d59575f80fd5b50565b5f81359050611d6a81611d46565b92915050565b5f805f8060808587031215611d8857611d8761180c565b5b5f611d9587828801611d5c565b9450506020611da687828801611d5c565b9350506040611db78782880161182f565b9250506060611dc88782880161182f565b91505092959194509250565b5f8060408385031215611dea57611de961180c565b5b5f611df785828601611c6a565b9250506020611e088582860161182f565b9150509250929050565b7f4e487b71000000000000000000000000000000000000000000000000000000005f52602260045260245ffd5b5f6002820490506001821680611e5657607f821691505b602082108103611e6957611e68611e12565b5b50919050565b7f4e487b71000000000000000000000000000000000000000000000000000000005f52603260045260245ffd5b7f57696474686472617720616d6f756e7420657863656564207468652062616c615f8201527f6e63650000000000000000000000000000000000000000000000000000000000602082015250565b5f611ef6602383611b44565b9150611f0182611e9c565b604082019050919050565b5f6020820190508181035f830152611f2381611eea565b9050919050565b7f4c6f636b206973207374696c6c204163746976650000000000000000000000005f82015250565b5f611f5e601483611b44565b9150611f6982611f2a565b602082019050919050565b5f6020820190508181035f830152611f8b81611f52565b9050919050565b5f604082019050611fa55f830185611b35565b611fb260208301846118e8565b9392505050565b5f8115159050919050565b611fcd81611fb9565b8114611fd7575f80fd5b50565b5f81519050611fe881611fc4565b92915050565b5f602082840312156120035761200261180c565b5b5f61201084828501611fda565b91505092915050565b7f4e487b71000000000000000000000000000000000000000000000000000000005f52601160045260245ffd5b5f61205082611810565b915061205b83611810565b925082820390508181111561207357612072612019565b5b92915050565b5f61208382611810565b915061208e83611810565b92508282019050808211156120a6576120a5612019565b5b92915050565b7f4c6f636b206973207374696c6c206163746976650000000000000000000000005f82015250565b5f6120e0601483611b44565b91506120eb826120ac565b602082019050919050565b5f6020820190508181035f83015261210d816120d4565b9050919050565b7f4e6f207265776172647320746f20636c61696d000000000000000000000000005f82015250565b5f612148601383611b44565b915061215382612114565b602082019050919050565b5f6020820190508181035f8301526121758161213c565b9050919050565b5f61218682611810565b91507fffffffffffffffffffffffffffffffffffffffffffffffffffffffffffffffff82036121b8576121b7612019565b5b600182019050919050565b5f815190506121d181611819565b92915050565b5f602082840312156121ec576121eb61180c565b5b5f6121f9848285016121c3565b91505092915050565b7f416d6f756e7420657863656564732062616c616e6365000000000000000000005f82015250565b5f612236601683611b44565b915061224182612202565b602082019050919050565b5f6020820190508181035f8301526122638161222a565b9050919050565b7f43616e2774207769746864726177206465706f736974656420746f6b656e00005f82015250565b5f61229e601e83611b44565b91506122a98261226a565b602082019050919050565b5f6020820190508181035f8301526122cb81612292565b9050919050565b7f416d6f756e742073686f756c642062652067726561746572207468616e2030005f82015250565b5f612306601f83611b44565b9150612311826122d2565b602082019050919050565b5f6020820190508181035f830152612333816122fa565b9050919050565b5f60608201905061234d5f830186611b35565b61235a6020830185611b35565b61236760408301846118e8565b949350505050565b5f61237982611810565b915061238483611810565b925082820261239281611810565b915082820484148315176123a9576123a8612019565b5b5092915050565b7f5265656e7472616e637947756172643a207265656e7472616e742063616c6c005f82015250565b5f6123e4601f83611b44565b91506123ef826123b0565b602082019050919050565b5f6020820190508181035f830152612411816123d8565b9050919050565b7f4e487b71000000000000000000000000000000000000000000000000000000005f52601260045260245ffd5b5f61244f82611810565b915061245a83611810565b92508261246a57612469612418565b5b828204905092915050565b7f4e487b71000000000000000000000000000000000000000000000000000000005f52604160045260245ffd5b5f819050815f5260205f209050919050565b5f6020601f8301049050919050565b5f82821b905092915050565b5f600883026124fe7fffffffffffffffffffffffffffffffffffffffffffffffffffffffffffffffff826124c3565b61250886836124c3565b95508019841693508086168417925050509392505050565b5f61253a61253561253084611810565b61188d565b611810565b9050919050565b5f819050919050565b61255383612520565b61256761255f82612541565b8484546124cf565b825550505050565b5f90565b61257b61256f565b61258681848461254a565b505050565b5b818110156125a95761259e5f82612573565b60018101905061258c565b5050565b601f8211156125ee576125bf816124a2565b6125c8846124b4565b810160208510156125d7578190505b6125eb6125e3856124b4565b83018261258b565b50505b505050565b5f82821c905092915050565b5f61260e5f19846008026125f3565b1980831691505092915050565b5f61262683836125ff565b9150826002028217905092915050565b61263f826119a0565b67ffffffffffffffff81111561265857612657612475565b5b6126628254611e3f565b61266d8282856125ad565b5f60209050601f83116001811461269e575f841561268c578287015190505b612696858261261b565b8655506126fd565b601f1984166126ac866124a2565b5f5b828110156126d3578489015182556001820191506020850194506020810190506126ae565b868310156126f057848901516126ec601f8916826125ff565b8355505b6001600288020188555050505b50505050505056fea2646970667358221220517d41ac4ef948f1e3740276c0c4e0b915ee48495102f879a8f9a306fad6818364736f6c634300081a0033",
			"opcodes": "PUSH1 0x80 PUSH1 0x40 MSTORE PUSH8 0xDE0B6B3A7640000 PUSH1 0x3 SSTORE CALLVALUE DUP1 ISZERO PUSH2 0x1B JUMPI PUSH0 DUP1 REVERT JUMPDEST POP PUSH1 0x40 MLOAD PUSH2 0x2A14 CODESIZE SUB DUP1 PUSH2 0x2A14 DUP4 CODECOPY DUP2 DUP2 ADD PUSH1 0x40 MSTORE DUP2 ADD SWAP1 PUSH2 0x3D SWAP2 SWAP1 PUSH2 0x266 JUMP JUMPDEST DUP1 PUSH0 PUSH20 0xFFFFFFFFFFFFFFFFFFFFFFFFFFFFFFFFFFFFFFFF AND DUP2 PUSH20 0xFFFFFFFFFFFFFFFFFFFFFFFFFFFFFFFFFFFFFFFF AND SUB PUSH2 0xAE JUMPI PUSH0 PUSH1 0x40 MLOAD PUSH32 0x1E4FBDF700000000000000000000000000000000000000000000000000000000 DUP2 MSTORE PUSH1 0x4 ADD PUSH2 0xA5 SWAP2 SWAP1 PUSH2 0x2B3 JUMP JUMPDEST PUSH1 0x40 MLOAD DUP1 SWAP2 SUB SWAP1 REVERT JUMPDEST PUSH2 0xBD DUP2 PUSH2 0x10C PUSH1 0x20 SHL PUSH1 0x20 SHR JUMP JUMPDEST POP PUSH1 0x1 DUP1 DUP2 SWAP1 SSTORE POP DUP2 PUSH1 0x2 PUSH0 PUSH2 0x100 EXP DUP2 SLOAD DUP2 PUSH20 0xFFFFFFFFFFFFFFFFFFFFFFFFFFFFFFFFFFFFFFFF MUL NOT AND SWAP1 DUP4 PUSH20 0xFFFFFFFFFFFFFFFFFFFFFFFFFFFFFFFFFFFFFFFF AND MUL OR SWAP1 SSTORE POP POP POP PUSH2 0x2CC JUMP JUMPDEST PUSH0 DUP1 PUSH0 SWAP1 SLOAD SWAP1 PUSH2 0x100 EXP SWAP1 DIV PUSH20 0xFFFFFFFFFFFFFFFFFFFFFFFFFFFFFFFFFFFFFFFF AND SWAP1 POP DUP2 PUSH0 DUP1 PUSH2 0x100 EXP DUP2 SLOAD DUP2 PUSH20 0xFFFFFFFFFFFFFFFFFFFFFFFFFFFFFFFFFFFFFFFF MUL NOT AND SWAP1 DUP4 PUSH20 0xFFFFFFFFFFFFFFFFFFFFFFFFFFFFFFFFFFFFFFFF AND MUL OR SWAP1 SSTORE POP DUP2 PUSH20 0xFFFFFFFFFFFFFFFFFFFFFFFFFFFFFFFFFFFFFFFF AND DUP2 PUSH20 0xFFFFFFFFFFFFFFFFFFFFFFFFFFFFFFFFFFFFFFFF AND PUSH32 0x8BE0079C531659141344CD1FD0A4F28419497F9722A3DAAFE3B4186F6B6457E0 PUSH1 0x40 MLOAD PUSH1 0x40 MLOAD DUP1 SWAP2 SUB SWAP1 LOG3 POP POP JUMP JUMPDEST PUSH0 DUP1 REVERT JUMPDEST PUSH0 PUSH20 0xFFFFFFFFFFFFFFFFFFFFFFFFFFFFFFFFFFFFFFFF DUP3 AND SWAP1 POP SWAP2 SWAP1 POP JUMP JUMPDEST PUSH0 PUSH2 0x1FA DUP3 PUSH2 0x1D1 JUMP JUMPDEST SWAP1 POP SWAP2 SWAP1 POP JUMP JUMPDEST PUSH0 PUSH2 0x20B DUP3 PUSH2 0x1F0 JUMP JUMPDEST SWAP1 POP SWAP2 SWAP1 POP JUMP JUMPDEST PUSH2 0x21B DUP2 PUSH2 0x201 JUMP JUMPDEST DUP2 EQ PUSH2 0x225 JUMPI PUSH0 DUP1 REVERT JUMPDEST POP JUMP JUMPDEST PUSH0 DUP2 MLOAD SWAP1 POP PUSH2 0x236 DUP2 PUSH2 0x212 JUMP JUMPDEST SWAP3 SWAP2 POP POP JUMP JUMPDEST PUSH2 0x245 DUP2 PUSH2 0x1F0 JUMP JUMPDEST DUP2 EQ PUSH2 0x24F JUMPI PUSH0 DUP1 REVERT JUMPDEST POP JUMP JUMPDEST PUSH0 DUP2 MLOAD SWAP1 POP PUSH2 0x260 DUP2 PUSH2 0x23C JUMP JUMPDEST SWAP3 SWAP2 POP POP JUMP JUMPDEST PUSH0 DUP1 PUSH1 0x40 DUP4 DUP6 SUB SLT ISZERO PUSH2 0x27C JUMPI PUSH2 0x27B PUSH2 0x1CD JUMP JUMPDEST JUMPDEST PUSH0 PUSH2 0x289 DUP6 DUP3 DUP7 ADD PUSH2 0x228 JUMP JUMPDEST SWAP3 POP POP PUSH1 0x20 PUSH2 0x29A DUP6 DUP3 DUP7 ADD PUSH2 0x252 JUMP JUMPDEST SWAP2 POP POP SWAP3 POP SWAP3 SWAP1 POP JUMP JUMPDEST PUSH2 0x2AD DUP2 PUSH2 0x1F0 JUMP JUMPDEST DUP3 MSTORE POP POP JUMP JUMPDEST PUSH0 PUSH1 0x20 DUP3 ADD SWAP1 POP PUSH2 0x2C6 PUSH0 DUP4 ADD DUP5 PUSH2 0x2A4 JUMP JUMPDEST SWAP3 SWAP2 POP POP JUMP JUMPDEST PUSH2 0x273B DUP1 PUSH2 0x2D9 PUSH0 CODECOPY PUSH0 RETURN INVALID PUSH1 0x80 PUSH1 0x40 MSTORE CALLVALUE DUP1 ISZERO PUSH2 0xF JUMPI PUSH0 DUP1 REVERT JUMPDEST POP PUSH1 0x4 CALLDATASIZE LT PUSH2 0x109 JUMPI PUSH0 CALLDATALOAD PUSH1 0xE0 SHR DUP1 PUSH4 0x907B503D GT PUSH2 0xA0 JUMPI DUP1 PUSH4 0xC20632BA GT PUSH2 0x6F JUMPI DUP1 PUSH4 0xC20632BA EQ PUSH2 0x2BF JUMPI DUP1 PUSH4 0xD004F0F7 EQ PUSH2 0x2DB JUMPI DUP1 PUSH4 0xE2BBB158 EQ PUSH2 0x2F7 JUMPI DUP1 PUSH4 0xF2FDE38B EQ PUSH2 0x313 JUMPI DUP1 PUSH4 0xF525CB68 EQ PUSH2 0x32F JUMPI PUSH2 0x109 JUMP JUMPDEST DUP1 PUSH4 0x907B503D EQ PUSH2 0x211 JUMPI DUP1 PUSH4 0x93F1A40B EQ PUSH2 0x241 JUMPI DUP1 PUSH4 0x98969E82 EQ PUSH2 0x273 JUMPI DUP1 PUSH4 0xAE169A50 EQ PUSH2 0x2A3 JUMPI PUSH2 0x109 JUMP JUMPDEST DUP1 PUSH4 0x441A3E70 GT PUSH2 0xDC JUMPI DUP1 PUSH4 0x441A3E70 EQ PUSH2 0x1AF JUMPI DUP1 PUSH4 0x715018A6 EQ PUSH2 0x1CB JUMPI DUP1 PUSH4 0x72F702F3 EQ PUSH2 0x1D5 JUMPI DUP1 PUSH4 0x8DA5CB5B EQ PUSH2 0x1F3 JUMPI PUSH2 0x109 JUMP JUMPDEST DUP1 PUSH4 0x1526FE27 EQ PUSH2 0x10D JUMPI DUP1 PUSH4 0x31276CF8 EQ PUSH2 0x141 JUMPI DUP1 PUSH4 0x34C1F944 EQ PUSH2 0x15F JUMPI DUP1 PUSH4 0x39739B99 EQ PUSH2 0x193 JUMPI JUMPDEST PUSH0 DUP1 REVERT JUMPDEST PUSH2 0x127 PUSH1 0x4 DUP1 CALLDATASIZE SUB DUP2 ADD SWAP1 PUSH2 0x122 SWAP2 SWAP1 PUSH2 0x1843 JUMP JUMPDEST PUSH2 0x34D JUMP JUMPDEST PUSH1 0x40 MLOAD PUSH2 0x138 SWAP6 SWAP5 SWAP4 SWAP3 SWAP2 SWAP1 PUSH2 0x18F7 JUMP JUMPDEST PUSH1 0x40 MLOAD DUP1 SWAP2 SUB SWAP1 RETURN JUMPDEST PUSH2 0x149 PUSH2 0x3CC JUMP JUMPDEST PUSH1 0x40 MLOAD PUSH2 0x156 SWAP2 SWAP1 PUSH2 0x1B15 JUMP JUMPDEST PUSH1 0x40 MLOAD DUP1 SWAP2 SUB SWAP1 RETURN JUMPDEST PUSH2 0x179 PUSH1 0x4 DUP1 CALLDATASIZE SUB DUP2 ADD SWAP1 PUSH2 0x174 SWAP2 SWAP1 PUSH2 0x1843 JUMP JUMPDEST PUSH2 0x52A JUMP JUMPDEST PUSH1 0x40 MLOAD PUSH2 0x18A SWAP6 SWAP5 SWAP4 SWAP3 SWAP2 SWAP1 PUSH2 0x1B8C JUMP JUMPDEST PUSH1 0x40 MLOAD DUP1 SWAP2 SUB SWAP1 RETURN JUMPDEST PUSH2 0x1AD PUSH1 0x4 DUP1 CALLDATASIZE SUB DUP2 ADD SWAP1 PUSH2 0x1A8 SWAP2 SWAP1 PUSH2 0x1BE4 JUMP JUMPDEST PUSH2 0x610 JUMP JUMPDEST STOP JUMPDEST PUSH2 0x1C9 PUSH1 0x4 DUP1 CALLDATASIZE SUB DUP2 ADD SWAP1 PUSH2 0x1C4 SWAP2 SWAP1 PUSH2 0x1BE4 JUMP JUMPDEST PUSH2 0x649 JUMP JUMPDEST STOP JUMPDEST PUSH2 0x1D3 PUSH2 0x9F0 JUMP JUMPDEST STOP JUMPDEST PUSH2 0x1DD PUSH2 0xA03 JUMP JUMPDEST PUSH1 0x40 MLOAD PUSH2 0x1EA SWAP2 SWAP1 PUSH2 0x1C22 JUMP JUMPDEST PUSH1 0x40 MLOAD DUP1 SWAP2 SUB SWAP1 RETURN JUMPDEST PUSH2 0x1FB PUSH2 0xA28 JUMP JUMPDEST PUSH1 0x40 MLOAD PUSH2 0x208 SWAP2 SWAP1 PUSH2 0x1C3B JUMP JUMPDEST PUSH1 0x40 MLOAD DUP1 SWAP2 SUB SWAP1 RETURN JUMPDEST PUSH2 0x22B PUSH1 0x4 DUP1 CALLDATASIZE SUB DUP2 ADD SWAP1 PUSH2 0x226 SWAP2 SWAP1 PUSH2 0x1C7E JUMP JUMPDEST PUSH2 0xA4F JUMP JUMPDEST PUSH1 0x40 MLOAD PUSH2 0x238 SWAP2 SWAP1 PUSH2 0x1CA9 JUMP JUMPDEST PUSH1 0x40 MLOAD DUP1 SWAP2 SUB SWAP1 RETURN JUMPDEST PUSH2 0x25B PUSH1 0x4 DUP1 CALLDATASIZE SUB DUP2 ADD SWAP1 PUSH2 0x256 SWAP2 SWAP1 PUSH2 0x1CC2 JUMP JUMPDEST PUSH2 0xA64 JUMP JUMPDEST PUSH1 0x40 MLOAD PUSH2 0x26A SWAP4 SWAP3 SWAP2 SWAP1 PUSH2 0x1D00 JUMP JUMPDEST PUSH1 0x40 MLOAD DUP1 SWAP2 SUB SWAP1 RETURN JUMPDEST PUSH2 0x28D PUSH1 0x4 DUP1 CALLDATASIZE SUB DUP2 ADD SWAP1 PUSH2 0x288 SWAP2 SWAP1 PUSH2 0x1CC2 JUMP JUMPDEST PUSH2 0xA95 JUMP JUMPDEST PUSH1 0x40 MLOAD PUSH2 0x29A SWAP2 SWAP1 PUSH2 0x1CA9 JUMP JUMPDEST PUSH1 0x40 MLOAD DUP1 SWAP2 SUB SWAP1 RETURN JUMPDEST PUSH2 0x2BD PUSH1 0x4 DUP1 CALLDATASIZE SUB DUP2 ADD SWAP1 PUSH2 0x2B8 SWAP2 SWAP1 PUSH2 0x1843 JUMP JUMPDEST PUSH2 0xAF8 JUMP JUMPDEST STOP JUMPDEST PUSH2 0x2D9 PUSH1 0x4 DUP1 CALLDATASIZE SUB DUP2 ADD SWAP1 PUSH2 0x2D4 SWAP2 SWAP1 PUSH2 0x1D70 JUMP JUMPDEST PUSH2 0xCFF JUMP JUMPDEST STOP JUMPDEST PUSH2 0x2F5 PUSH1 0x4 DUP1 CALLDATASIZE SUB DUP2 ADD SWAP1 PUSH2 0x2F0 SWAP2 SWAP1 PUSH2 0x1DD4 JUMP JUMPDEST PUSH2 0xE49 JUMP JUMPDEST STOP JUMPDEST PUSH2 0x311 PUSH1 0x4 DUP1 CALLDATASIZE SUB DUP2 ADD SWAP1 PUSH2 0x30C SWAP2 SWAP1 PUSH2 0x1BE4 JUMP JUMPDEST PUSH2 0xFCA JUMP JUMPDEST STOP JUMPDEST PUSH2 0x32D PUSH1 0x4 DUP1 CALLDATASIZE SUB DUP2 ADD SWAP1 PUSH2 0x328 SWAP2 SWAP1 PUSH2 0x1C7E JUMP JUMPDEST PUSH2 0x1344 JUMP JUMPDEST STOP JUMPDEST PUSH2 0x337 PUSH2 0x13C8 JUMP JUMPDEST PUSH1 0x40 MLOAD PUSH2 0x344 SWAP2 SWAP1 PUSH2 0x1CA9 JUMP JUMPDEST PUSH1 0x40 MLOAD DUP1 SWAP2 SUB SWAP1 RETURN JUMPDEST PUSH1 0x5 DUP2 DUP2 SLOAD DUP2 LT PUSH2 0x35C JUMPI PUSH0 DUP1 REVERT JUMPDEST SWAP1 PUSH0 MSTORE PUSH1 0x20 PUSH0 KECCAK256 SWAP1 PUSH1 0x5 MUL ADD PUSH0 SWAP2 POP SWAP1 POP DUP1 PUSH0 ADD PUSH0 SWAP1 SLOAD SWAP1 PUSH2 0x100 EXP SWAP1 DIV PUSH20 0xFFFFFFFFFFFFFFFFFFFFFFFFFFFFFFFFFFFFFFFF AND SWAP1 DUP1 PUSH1 0x1 ADD PUSH0 SWAP1 SLOAD SWAP1 PUSH2 0x100 EXP SWAP1 DIV PUSH20 0xFFFFFFFFFFFFFFFFFFFFFFFFFFFFFFFFFFFFFFFF AND SWAP1 DUP1 PUSH1 0x2 ADD SLOAD SWAP1 DUP1 PUSH1 0x3 ADD SLOAD SWAP1 DUP1 PUSH1 0x4 ADD SLOAD SWAP1 POP DUP6 JUMP JUMPDEST PUSH1 0x60 PUSH1 0x8 DUP1 SLOAD DUP1 PUSH1 0x20 MUL PUSH1 0x20 ADD PUSH1 0x40 MLOAD SWAP1 DUP2 ADD PUSH1 0x40 MSTORE DUP1 SWAP3 SWAP2 SWAP1 DUP2 DUP2 MSTORE PUSH1 0x20 ADD PUSH0 SWAP1 JUMPDEST DUP3 DUP3 LT ISZERO PUSH2 0x521 JUMPI DUP4 DUP3 SWAP1 PUSH0 MSTORE PUSH1 0x20 PUSH0 KECCAK256 SWAP1 PUSH1 0x5 MUL ADD PUSH1 0x40 MLOAD DUP1 PUSH1 0xA0 ADD PUSH1 0x40 MSTORE SWAP1 DUP2 PUSH0 DUP3 ADD SLOAD DUP2 MSTORE PUSH1 0x20 ADD PUSH1 0x1 DUP3 ADD SLOAD DUP2 MSTORE PUSH1 0x20 ADD PUSH1 0x2 DUP3 ADD PUSH0 SWAP1 SLOAD SWAP1 PUSH2 0x100 EXP SWAP1 DIV PUSH20 0xFFFFFFFFFFFFFFFFFFFFFFFFFFFFFFFFFFFFFFFF AND PUSH20 0xFFFFFFFFFFFFFFFFFFFFFFFFFFFFFFFFFFFFFFFF AND PUSH20 0xFFFFFFFFFFFFFFFFFFFFFFFFFFFFFFFFFFFFFFFF AND DUP2 MSTORE PUSH1 0x20 ADD PUSH1 0x3 DUP3 ADD DUP1 SLOAD PUSH2 0x488 SWAP1 PUSH2 0x1E3F JUMP JUMPDEST DUP1 PUSH1 0x1F ADD PUSH1 0x20 DUP1 SWAP2 DIV MUL PUSH1 0x20 ADD PUSH1 0x40 MLOAD SWAP1 DUP2 ADD PUSH1 0x40 MSTORE DUP1 SWAP3 SWAP2 SWAP1 DUP2 DUP2 MSTORE PUSH1 0x20 ADD DUP3 DUP1 SLOAD PUSH2 0x4B4 SWAP1 PUSH2 0x1E3F JUMP JUMPDEST DUP1 ISZERO PUSH2 0x4FF JUMPI DUP1 PUSH1 0x1F LT PUSH2 0x4D6 JUMPI PUSH2 0x100 DUP1 DUP4 SLOAD DIV MUL DUP4 MSTORE SWAP2 PUSH1 0x20 ADD SWAP2 PUSH2 0x4FF JUMP JUMPDEST DUP3 ADD SWAP2 SWAP1 PUSH0 MSTORE PUSH1 0x20 PUSH0 KECCAK256 SWAP1 JUMPDEST DUP2 SLOAD DUP2 MSTORE SWAP1 PUSH1 0x1 ADD SWAP1 PUSH1 0x20 ADD DUP1 DUP4 GT PUSH2 0x4E2 JUMPI DUP3 SWAP1 SUB PUSH1 0x1F AND DUP3 ADD SWAP2 JUMPDEST POP POP POP POP POP DUP2 MSTORE PUSH1 0x20 ADD PUSH1 0x4 DUP3 ADD SLOAD DUP2 MSTORE POP POP DUP2 MSTORE PUSH1 0x20 ADD SWAP1 PUSH1 0x1 ADD SWAP1 PUSH2 0x3EF JUMP JUMPDEST POP POP POP POP SWAP1 POP SWAP1 JUMP JUMPDEST PUSH1 0x8 DUP2 DUP2 SLOAD DUP2 LT PUSH2 0x539 JUMPI PUSH0 DUP1 REVERT JUMPDEST SWAP1 PUSH0 MSTORE PUSH1 0x20 PUSH0 KECCAK256 SWAP1 PUSH1 0x5 MUL ADD PUSH0 SWAP2 POP SWAP1 POP DUP1 PUSH0 ADD SLOAD SWAP1 DUP1 PUSH1 0x1 ADD SLOAD SWAP1 DUP1 PUSH1 0x2 ADD PUSH0 SWAP1 SLOAD SWAP1 PUSH2 0x100 EXP SWAP1 DIV PUSH20 0xFFFFFFFFFFFFFFFFFFFFFFFFFFFFFFFFFFFFFFFF AND SWAP1 DUP1 PUSH1 0x3 ADD DUP1 SLOAD PUSH2 0x589 SWAP1 PUSH2 0x1E3F JUMP JUMPDEST DUP1 PUSH1 0x1F ADD PUSH1 0x20 DUP1 SWAP2 DIV MUL PUSH1 0x20 ADD PUSH1 0x40 MLOAD SWAP1 DUP2 ADD PUSH1 0x40 MSTORE DUP1 SWAP3 SWAP2 SWAP1 DUP2 DUP2 MSTORE PUSH1 0x20 ADD DUP3 DUP1 SLOAD PUSH2 0x5B5 SWAP1 PUSH2 0x1E3F JUMP JUMPDEST DUP1 ISZERO PUSH2 0x600 JUMPI DUP1 PUSH1 0x1F LT PUSH2 0x5D7 JUMPI PUSH2 0x100 DUP1 DUP4 SLOAD DIV MUL DUP4 MSTORE SWAP2 PUSH1 0x20 ADD SWAP2 PUSH2 0x600 JUMP JUMPDEST DUP3 ADD SWAP2 SWAP1 PUSH0 MSTORE PUSH1 0x20 PUSH0 KECCAK256 SWAP1 JUMPDEST DUP2 SLOAD DUP2 MSTORE SWAP1 PUSH1 0x1 ADD SWAP1 PUSH1 0x20 ADD DUP1 DUP4 GT PUSH2 0x5E3 JUMPI DUP3 SWAP1 SUB PUSH1 0x1F AND DUP3 ADD SWAP2 JUMPDEST POP POP POP POP POP SWAP1 DUP1 PUSH1 0x4 ADD SLOAD SWAP1 POP DUP6 JUMP JUMPDEST PUSH2 0x618 PUSH2 0x13CE JUMP JUMPDEST PUSH0 PUSH1 0x5 DUP4 DUP2 SLOAD DUP2 LT PUSH2 0x62D JUMPI PUSH2 0x62C PUSH2 0x1E6F JUMP JUMPDEST JUMPDEST SWAP1 PUSH0 MSTORE PUSH1 0x20 PUSH0 KECCAK256 SWAP1 PUSH1 0x5 MUL ADD SWAP1 POP DUP2 DUP2 PUSH1 0x3 ADD DUP2 SWAP1 SSTORE POP POP POP POP JUMP JUMPDEST PUSH2 0x651 PUSH2 0x1455 JUMP JUMPDEST PUSH0 PUSH1 0x5 DUP4 DUP2 SLOAD DUP2 LT PUSH2 0x666 JUMPI PUSH2 0x665 PUSH2 0x1E6F JUMP JUMPDEST JUMPDEST SWAP1 PUSH0 MSTORE PUSH1 0x20 PUSH0 KECCAK256 SWAP1 PUSH1 0x5 MUL ADD SWAP1 POP PUSH0 PUSH1 0x7 PUSH0 DUP6 DUP2 MSTORE PUSH1 0x20 ADD SWAP1 DUP2 MSTORE PUSH1 0x20 ADD PUSH0 KECCAK256 PUSH0 CALLER PUSH20 0xFFFFFFFFFFFFFFFFFFFFFFFFFFFFFFFFFFFFFFFF AND PUSH20 0xFFFFFFFFFFFFFFFFFFFFFFFFFFFFFFFFFFFFFFFF AND DUP2 MSTORE PUSH1 0x20 ADD SWAP1 DUP2 MSTORE PUSH1 0x20 ADD PUSH0 KECCAK256 SWAP1 POP DUP3 DUP2 PUSH0 ADD SLOAD GT PUSH2 0x708 JUMPI PUSH1 0x40 MLOAD PUSH32 0x8C379A000000000000000000000000000000000000000000000000000000000 DUP2 MSTORE PUSH1 0x4 ADD PUSH2 0x6FF SWAP1 PUSH2 0x1F0C JUMP JUMPDEST PUSH1 0x40 MLOAD DUP1 SWAP2 SUB SWAP1 REVERT JUMPDEST TIMESTAMP DUP2 PUSH1 0x2 ADD SLOAD GT ISZERO PUSH2 0x74F JUMPI PUSH1 0x40 MLOAD PUSH32 0x8C379A000000000000000000000000000000000000000000000000000000000 DUP2 MSTORE PUSH1 0x4 ADD PUSH2 0x746 SWAP1 PUSH2 0x1F74 JUMP JUMPDEST PUSH1 0x40 MLOAD DUP1 SWAP2 SUB SWAP1 REVERT JUMPDEST PUSH0 PUSH2 0x75A DUP3 DUP7 PUSH2 0x14A4 JUMP JUMPDEST SWAP1 POP PUSH0 DUP3 PUSH0 ADD SLOAD GT ISZERO PUSH2 0x848 JUMPI DUP3 PUSH1 0x1 ADD PUSH0 SWAP1 SLOAD SWAP1 PUSH2 0x100 EXP SWAP1 DIV PUSH20 0xFFFFFFFFFFFFFFFFFFFFFFFFFFFFFFFFFFFFFFFF AND PUSH20 0xFFFFFFFFFFFFFFFFFFFFFFFFFFFFFFFFFFFFFFFF AND PUSH4 0xA9059CBB CALLER DUP4 PUSH1 0x40 MLOAD DUP4 PUSH4 0xFFFFFFFF AND PUSH1 0xE0 SHL DUP2 MSTORE PUSH1 0x4 ADD PUSH2 0x7C5 SWAP3 SWAP2 SWAP1 PUSH2 0x1F92 JUMP JUMPDEST PUSH1 0x20 PUSH1 0x40 MLOAD DUP1 DUP4 SUB DUP2 PUSH0 DUP8 GAS CALL ISZERO DUP1 ISZERO PUSH2 0x7E1 JUMPI RETURNDATASIZE PUSH0 DUP1 RETURNDATACOPY RETURNDATASIZE PUSH0 REVERT JUMPDEST POP POP POP POP PUSH1 0x40 MLOAD RETURNDATASIZE PUSH1 0x1F NOT PUSH1 0x1F DUP3 ADD AND DUP3 ADD DUP1 PUSH1 0x40 MSTORE POP DUP2 ADD SWAP1 PUSH2 0x805 SWAP2 SWAP1 PUSH2 0x1FEE JUMP JUMPDEST POP PUSH2 0x847 DUP6 DUP3 CALLER PUSH1 0x40 MLOAD DUP1 PUSH1 0x40 ADD PUSH1 0x40 MSTORE DUP1 PUSH1 0x5 DUP2 MSTORE PUSH1 0x20 ADD PUSH32 0x436C61696D000000000000000000000000000000000000000000000000000000 DUP2 MSTORE POP PUSH2 0x153C JUMP JUMPDEST JUMPDEST PUSH0 DUP5 GT ISZERO PUSH2 0x997 JUMPI DUP4 DUP3 PUSH0 ADD PUSH0 DUP3 DUP3 SLOAD PUSH2 0x862 SWAP2 SWAP1 PUSH2 0x2046 JUMP JUMPDEST SWAP3 POP POP DUP2 SWAP1 SSTORE POP DUP4 DUP4 PUSH1 0x2 ADD PUSH0 DUP3 DUP3 SLOAD PUSH2 0x87C SWAP2 SWAP1 PUSH2 0x2046 JUMP JUMPDEST SWAP3 POP POP DUP2 SWAP1 SSTORE POP DUP4 PUSH1 0x6 PUSH0 DUP6 PUSH0 ADD PUSH0 SWAP1 SLOAD SWAP1 PUSH2 0x100 EXP SWAP1 DIV PUSH20 0xFFFFFFFFFFFFFFFFFFFFFFFFFFFFFFFFFFFFFFFF AND PUSH20 0xFFFFFFFFFFFFFFFFFFFFFFFFFFFFFFFFFFFFFFFF AND PUSH20 0xFFFFFFFFFFFFFFFFFFFFFFFFFFFFFFFFFFFFFFFF AND DUP2 MSTORE PUSH1 0x20 ADD SWAP1 DUP2 MSTORE PUSH1 0x20 ADD PUSH0 KECCAK256 PUSH0 DUP3 DUP3 SLOAD PUSH2 0x8F1 SWAP2 SWAP1 PUSH2 0x2079 JUMP JUMPDEST SWAP3 POP POP DUP2 SWAP1 SSTORE POP DUP3 PUSH0 ADD PUSH0 SWAP1 SLOAD SWAP1 PUSH2 0x100 EXP SWAP1 DIV PUSH20 0xFFFFFFFFFFFFFFFFFFFFFFFFFFFFFFFFFFFFFFFF AND PUSH20 0xFFFFFFFFFFFFFFFFFFFFFFFFFFFFFFFFFFFFFFFF AND PUSH4 0xA9059CBB CALLER DUP7 PUSH1 0x40 MLOAD DUP4 PUSH4 0xFFFFFFFF AND PUSH1 0xE0 SHL DUP2 MSTORE PUSH1 0x4 ADD PUSH2 0x955 SWAP3 SWAP2 SWAP1 PUSH2 0x1F92 JUMP JUMPDEST PUSH1 0x20 PUSH1 0x40 MLOAD DUP1 DUP4 SUB DUP2 PUSH0 DUP8 GAS CALL ISZERO DUP1 ISZERO PUSH2 0x971 JUMPI RETURNDATASIZE PUSH0 DUP1 RETURNDATACOPY RETURNDATASIZE PUSH0 REVERT JUMPDEST POP POP POP POP PUSH1 0x40 MLOAD RETURNDATASIZE PUSH1 0x1F NOT PUSH1 0x1F DUP3 ADD AND DUP3 ADD DUP1 PUSH1 0x40 MSTORE POP DUP2 ADD SWAP1 PUSH2 0x995 SWAP2 SWAP1 PUSH2 0x1FEE JUMP JUMPDEST POP JUMPDEST TIMESTAMP DUP3 PUSH1 0x1 ADD DUP2 SWAP1 SSTORE POP PUSH2 0x9E1 DUP6 DUP6 CALLER PUSH1 0x40 MLOAD DUP1 PUSH1 0x40 ADD PUSH1 0x40 MSTORE DUP1 PUSH1 0x8 DUP2 MSTORE PUSH1 0x20 ADD PUSH32 0x5769746864726177000000000000000000000000000000000000000000000000 DUP2 MSTORE POP PUSH2 0x153C JUMP JUMPDEST POP POP POP PUSH2 0x9EC PUSH2 0x1621 JUMP JUMPDEST POP POP JUMP JUMPDEST PUSH2 0x9F8 PUSH2 0x13CE JUMP JUMPDEST PUSH2 0xA01 PUSH0 PUSH2 0x162A JUMP JUMPDEST JUMP JUMPDEST PUSH1 0x2 PUSH0 SWAP1 SLOAD SWAP1 PUSH2 0x100 EXP SWAP1 DIV PUSH20 0xFFFFFFFFFFFFFFFFFFFFFFFFFFFFFFFFFFFFFFFF AND DUP2 JUMP JUMPDEST PUSH0 DUP1 PUSH0 SWAP1 SLOAD SWAP1 PUSH2 0x100 EXP SWAP1 DIV PUSH20 0xFFFFFFFFFFFFFFFFFFFFFFFFFFFFFFFFFFFFFFFF AND SWAP1 POP SWAP1 JUMP JUMPDEST PUSH1 0x6 PUSH1 0x20 MSTORE DUP1 PUSH0 MSTORE PUSH1 0x40 PUSH0 KECCAK256 PUSH0 SWAP2 POP SWAP1 POP SLOAD DUP2 JUMP JUMPDEST PUSH1 0x7 PUSH1 0x20 MSTORE DUP2 PUSH0 MSTORE PUSH1 0x40 PUSH0 KECCAK256 PUSH1 0x20 MSTORE DUP1 PUSH0 MSTORE PUSH1 0x40 PUSH0 KECCAK256 PUSH0 SWAP2 POP SWAP2 POP POP DUP1 PUSH0 ADD SLOAD SWAP1 DUP1 PUSH1 0x1 ADD SLOAD SWAP1 DUP1 PUSH1 0x2 ADD SLOAD SWAP1 POP DUP4 JUMP JUMPDEST PUSH0 DUP1 PUSH1 0x7 PUSH0 DUP6 DUP2 MSTORE PUSH1 0x20 ADD SWAP1 DUP2 MSTORE PUSH1 0x20 ADD PUSH0 KECCAK256 PUSH0 DUP5 PUSH20 0xFFFFFFFFFFFFFFFFFFFFFFFFFFFFFFFFFFFFFFFF AND PUSH20 0xFFFFFFFFFFFFFFFFFFFFFFFFFFFFFFFFFFFFFFFF AND DUP2 MSTORE PUSH1 0x20 ADD SWAP1 DUP2 MSTORE PUSH1 0x20 ADD PUSH0 KECCAK256 SWAP1 POP PUSH2 0xAEF DUP2 DUP6 PUSH2 0x14A4 JUMP JUMPDEST SWAP2 POP POP SWAP3 SWAP2 POP POP JUMP JUMPDEST PUSH2 0xB00 PUSH2 0x1455 JUMP JUMPDEST PUSH0 PUSH1 0x5 DUP3 DUP2 SLOAD DUP2 LT PUSH2 0xB15 JUMPI PUSH2 0xB14 PUSH2 0x1E6F JUMP JUMPDEST JUMPDEST SWAP1 PUSH0 MSTORE PUSH1 0x20 PUSH0 KECCAK256 SWAP1 PUSH1 0x5 MUL ADD SWAP1 POP PUSH0 PUSH1 0x7 PUSH0 DUP5 DUP2 MSTORE PUSH1 0x20 ADD SWAP1 DUP2 MSTORE PUSH1 0x20 ADD PUSH0 KECCAK256 PUSH0 CALLER PUSH20 0xFFFFFFFFFFFFFFFFFFFFFFFFFFFFFFFFFFFFFFFF AND PUSH20 0xFFFFFFFFFFFFFFFFFFFFFFFFFFFFFFFFFFFFFFFF AND DUP2 MSTORE PUSH1 0x20 ADD SWAP1 DUP2 MSTORE PUSH1 0x20 ADD PUSH0 KECCAK256 SWAP1 POP TIMESTAMP DUP2 PUSH1 0x2 ADD SLOAD GT ISZERO PUSH2 0xBB9 JUMPI PUSH1 0x40 MLOAD PUSH32 0x8C379A000000000000000000000000000000000000000000000000000000000 DUP2 MSTORE PUSH1 0x4 ADD PUSH2 0xBB0 SWAP1 PUSH2 0x20F6 JUMP JUMPDEST PUSH1 0x40 MLOAD DUP1 SWAP2 SUB SWAP1 REVERT JUMPDEST PUSH0 PUSH2 0xBC4 DUP3 DUP6 PUSH2 0x14A4 JUMP JUMPDEST SWAP1 POP PUSH0 DUP2 GT PUSH2 0xC08 JUMPI PUSH1 0x40 MLOAD PUSH32 0x8C379A000000000000000000000000000000000000000000000000000000000 DUP2 MSTORE PUSH1 0x4 ADD PUSH2 0xBFF SWAP1 PUSH2 0x215E JUMP JUMPDEST PUSH1 0x40 MLOAD DUP1 SWAP2 SUB SWAP1 REVERT JUMPDEST TIMESTAMP DUP3 PUSH1 0x1 ADD DUP2 SWAP1 SSTORE POP DUP3 PUSH1 0x1 ADD PUSH0 SWAP1 SLOAD SWAP1 PUSH2 0x100 EXP SWAP1 DIV PUSH20 0xFFFFFFFFFFFFFFFFFFFFFFFFFFFFFFFFFFFFFFFF AND PUSH20 0xFFFFFFFFFFFFFFFFFFFFFFFFFFFFFFFFFFFFFFFF AND PUSH4 0xA9059CBB CALLER DUP4 PUSH1 0x40 MLOAD DUP4 PUSH4 0xFFFFFFFF AND PUSH1 0xE0 SHL DUP2 MSTORE PUSH1 0x4 ADD PUSH2 0xC6F SWAP3 SWAP2 SWAP1 PUSH2 0x1F92 JUMP JUMPDEST PUSH1 0x20 PUSH1 0x40 MLOAD DUP1 DUP4 SUB DUP2 PUSH0 DUP8 GAS CALL ISZERO DUP1 ISZERO PUSH2 0xC8B JUMPI RETURNDATASIZE PUSH0 DUP1 RETURNDATACOPY RETURNDATASIZE PUSH0 REVERT JUMPDEST POP POP POP POP PUSH1 0x40 MLOAD RETURNDATASIZE PUSH1 0x1F NOT PUSH1 0x1F DUP3 ADD AND DUP3 ADD DUP1 PUSH1 0x40 MSTORE POP DUP2 ADD SWAP1 PUSH2 0xCAF SWAP2 SWAP1 PUSH2 0x1FEE JUMP JUMPDEST POP PUSH2 0xCF1 DUP5 DUP3 CALLER PUSH1 0x40 MLOAD DUP1 PUSH1 0x40 ADD PUSH1 0x40 MSTORE DUP1 PUSH1 0x5 DUP2 MSTORE PUSH1 0x20 ADD PUSH32 0x436C61696D000000000000000000000000000000000000000000000000000000 DUP2 MSTORE POP PUSH2 0x153C JUMP JUMPDEST POP POP POP PUSH2 0xCFC PUSH2 0x1621 JUMP JUMPDEST POP JUMP JUMPDEST PUSH2 0xD07 PUSH2 0x13CE JUMP JUMPDEST PUSH1 0x5 PUSH1 0x40 MLOAD DUP1 PUSH1 0xA0 ADD PUSH1 0x40 MSTORE DUP1 DUP7 PUSH20 0xFFFFFFFFFFFFFFFFFFFFFFFFFFFFFFFFFFFFFFFF AND DUP2 MSTORE PUSH1 0x20 ADD DUP6 PUSH20 0xFFFFFFFFFFFFFFFFFFFFFFFFFFFFFFFFFFFFFFFF AND DUP2 MSTORE PUSH1 0x20 ADD PUSH0 DUP2 MSTORE PUSH1 0x20 ADD DUP5 DUP2 MSTORE PUSH1 0x20 ADD DUP4 DUP2 MSTORE POP SWAP1 DUP1 PUSH1 0x1 DUP2 SLOAD ADD DUP1 DUP3 SSTORE DUP1 SWAP2 POP POP PUSH1 0x1 SWAP1 SUB SWAP1 PUSH0 MSTORE PUSH1 0x20 PUSH0 KECCAK256 SWAP1 PUSH1 0x5 MUL ADD PUSH0 SWAP1 SWAP2 SWAP1 SWAP2 SWAP1 SWAP2 POP PUSH0 DUP3 ADD MLOAD DUP2 PUSH0 ADD PUSH0 PUSH2 0x100 EXP DUP2 SLOAD DUP2 PUSH20 0xFFFFFFFFFFFFFFFFFFFFFFFFFFFFFFFFFFFFFFFF MUL NOT AND SWAP1 DUP4 PUSH20 0xFFFFFFFFFFFFFFFFFFFFFFFFFFFFFFFFFFFFFFFF AND MUL OR SWAP1 SSTORE POP PUSH1 0x20 DUP3 ADD MLOAD DUP2 PUSH1 0x1 ADD PUSH0 PUSH2 0x100 EXP DUP2 SLOAD DUP2 PUSH20 0xFFFFFFFFFFFFFFFFFFFFFFFFFFFFFFFFFFFFFFFF MUL NOT AND SWAP1 DUP4 PUSH20 0xFFFFFFFFFFFFFFFFFFFFFFFFFFFFFFFFFFFFFFFF AND MUL OR SWAP1 SSTORE POP PUSH1 0x40 DUP3 ADD MLOAD DUP2 PUSH1 0x2 ADD SSTORE PUSH1 0x60 DUP3 ADD MLOAD DUP2 PUSH1 0x3 ADD SSTORE PUSH1 0x80 DUP3 ADD MLOAD DUP2 PUSH1 0x4 ADD SSTORE POP POP PUSH1 0x4 PUSH0 DUP2 SLOAD DUP1 SWAP3 SWAP2 SWAP1 PUSH2 0xE3E SWAP1 PUSH2 0x217C JUMP JUMPDEST SWAP2 SWAP1 POP SSTORE POP POP POP POP POP JUMP JUMPDEST PUSH2 0xE51 PUSH2 0x13CE JUMP JUMPDEST PUSH0 DUP3 PUSH20 0xFFFFFFFFFFFFFFFFFFFFFFFFFFFFFFFFFFFFFFFF AND PUSH4 0x70A08231 ADDRESS PUSH1 0x40 MLOAD DUP3 PUSH4 0xFFFFFFFF AND PUSH1 0xE0 SHL DUP2 MSTORE PUSH1 0x4 ADD PUSH2 0xE8B SWAP2 SWAP1 PUSH2 0x1C3B JUMP JUMPDEST PUSH1 0x20 PUSH1 0x40 MLOAD DUP1 DUP4 SUB DUP2 DUP7 GAS STATICCALL ISZERO DUP1 ISZERO PUSH2 0xEA6 JUMPI RETURNDATASIZE PUSH0 DUP1 RETURNDATACOPY RETURNDATASIZE PUSH0 REVERT JUMPDEST POP POP POP POP PUSH1 0x40 MLOAD RETURNDATASIZE PUSH1 0x1F NOT PUSH1 0x1F DUP3 ADD AND DUP3 ADD DUP1 PUSH1 0x40 MSTORE POP DUP2 ADD SWAP1 PUSH2 0xECA SWAP2 SWAP1 PUSH2 0x21D7 JUMP JUMPDEST SWAP1 POP DUP1 DUP3 GT ISZERO PUSH2 0xF0F JUMPI PUSH1 0x40 MLOAD PUSH32 0x8C379A000000000000000000000000000000000000000000000000000000000 DUP2 MSTORE PUSH1 0x4 ADD PUSH2 0xF06 SWAP1 PUSH2 0x224C JUMP JUMPDEST PUSH1 0x40 MLOAD DUP1 SWAP2 SUB SWAP1 REVERT JUMPDEST PUSH1 0x6 PUSH0 DUP5 PUSH20 0xFFFFFFFFFFFFFFFFFFFFFFFFFFFFFFFFFFFFFFFF AND PUSH20 0xFFFFFFFFFFFFFFFFFFFFFFFFFFFFFFFFFFFFFFFF AND DUP2 MSTORE PUSH1 0x20 ADD SWAP1 DUP2 MSTORE PUSH1 0x20 ADD PUSH0 KECCAK256 SLOAD DUP3 DUP3 PUSH2 0xF59 SWAP2 SWAP1 PUSH2 0x2046 JUMP JUMPDEST LT ISZERO PUSH2 0xF9A JUMPI PUSH1 0x40 MLOAD PUSH32 0x8C379A000000000000000000000000000000000000000000000000000000000 DUP2 MSTORE PUSH1 0x4 ADD PUSH2 0xF91 SWAP1 PUSH2 0x22B4 JUMP JUMPDEST PUSH1 0x40 MLOAD DUP1 SWAP2 SUB SWAP1 REVERT JUMPDEST PUSH2 0xFC5 CALLER DUP4 DUP6 PUSH20 0xFFFFFFFFFFFFFFFFFFFFFFFFFFFFFFFFFFFFFFFF AND PUSH2 0x16EB SWAP1 SWAP3 SWAP2 SWAP1 PUSH4 0xFFFFFFFF AND JUMP JUMPDEST POP POP POP JUMP JUMPDEST PUSH2 0xFD2 PUSH2 0x1455 JUMP JUMPDEST PUSH0 DUP2 GT PUSH2 0x1014 JUMPI PUSH1 0x40 MLOAD PUSH32 0x8C379A000000000000000000000000000000000000000000000000000000000 DUP2 MSTORE PUSH1 0x4 ADD PUSH2 0x100B SWAP1 PUSH2 0x231C JUMP JUMPDEST PUSH1 0x40 MLOAD DUP1 SWAP2 SUB SWAP1 REVERT JUMPDEST PUSH0 PUSH1 0x5 DUP4 DUP2 SLOAD DUP2 LT PUSH2 0x1029 JUMPI PUSH2 0x1028 PUSH2 0x1E6F JUMP JUMPDEST JUMPDEST SWAP1 PUSH0 MSTORE PUSH1 0x20 PUSH0 KECCAK256 SWAP1 PUSH1 0x5 MUL ADD SWAP1 POP PUSH0 PUSH1 0x7 PUSH0 DUP6 DUP2 MSTORE PUSH1 0x20 ADD SWAP1 DUP2 MSTORE PUSH1 0x20 ADD PUSH0 KECCAK256 PUSH0 CALLER PUSH20 0xFFFFFFFFFFFFFFFFFFFFFFFFFFFFFFFFFFFFFFFF AND PUSH20 0xFFFFFFFFFFFFFFFFFFFFFFFFFFFFFFFFFFFFFFFF AND DUP2 MSTORE PUSH1 0x20 ADD SWAP1 DUP2 MSTORE PUSH1 0x20 ADD PUSH0 KECCAK256 SWAP1 POP PUSH0 DUP2 PUSH0 ADD SLOAD GT ISZERO PUSH2 0x1336 JUMPI PUSH0 PUSH2 0x109C DUP3 DUP7 PUSH2 0x14A4 JUMP JUMPDEST SWAP1 POP DUP3 PUSH1 0x1 ADD PUSH0 SWAP1 SLOAD SWAP1 PUSH2 0x100 EXP SWAP1 DIV PUSH20 0xFFFFFFFFFFFFFFFFFFFFFFFFFFFFFFFFFFFFFFFF AND PUSH20 0xFFFFFFFFFFFFFFFFFFFFFFFFFFFFFFFFFFFFFFFF AND PUSH4 0xA9059CBB CALLER DUP4 PUSH1 0x40 MLOAD DUP4 PUSH4 0xFFFFFFFF AND PUSH1 0xE0 SHL DUP2 MSTORE PUSH1 0x4 ADD PUSH2 0x10FC SWAP3 SWAP2 SWAP1 PUSH2 0x1F92 JUMP JUMPDEST PUSH1 0x20 PUSH1 0x40 MLOAD DUP1 DUP4 SUB DUP2 PUSH0 DUP8 GAS CALL ISZERO DUP1 ISZERO PUSH2 0x1118 JUMPI RETURNDATASIZE PUSH0 DUP1 RETURNDATACOPY RETURNDATASIZE PUSH0 REVERT JUMPDEST POP POP POP POP PUSH1 0x40 MLOAD RETURNDATASIZE PUSH1 0x1F NOT PUSH1 0x1F DUP3 ADD AND DUP3 ADD DUP1 PUSH1 0x40 MSTORE POP DUP2 ADD SWAP1 PUSH2 0x113C SWAP2 SWAP1 PUSH2 0x1FEE JUMP JUMPDEST POP PUSH2 0x117E DUP6 DUP3 CALLER PUSH1 0x40 MLOAD DUP1 PUSH1 0x40 ADD PUSH1 0x40 MSTORE DUP1 PUSH1 0x5 DUP2 MSTORE PUSH1 0x20 ADD PUSH32 0x436C61696D000000000000000000000000000000000000000000000000000000 DUP2 MSTORE POP PUSH2 0x153C JUMP JUMPDEST DUP3 PUSH0 ADD PUSH0 SWAP1 SLOAD SWAP1 PUSH2 0x100 EXP SWAP1 DIV PUSH20 0xFFFFFFFFFFFFFFFFFFFFFFFFFFFFFFFFFFFFFFFF AND PUSH20 0xFFFFFFFFFFFFFFFFFFFFFFFFFFFFFFFFFFFFFFFF AND PUSH4 0x23B872DD CALLER ADDRESS DUP8 PUSH1 0x40 MLOAD DUP5 PUSH4 0xFFFFFFFF AND PUSH1 0xE0 SHL DUP2 MSTORE PUSH1 0x4 ADD PUSH2 0x11DD SWAP4 SWAP3 SWAP2 SWAP1 PUSH2 0x233A JUMP JUMPDEST PUSH1 0x20 PUSH1 0x40 MLOAD DUP1 DUP4 SUB DUP2 PUSH0 DUP8 GAS CALL ISZERO DUP1 ISZERO PUSH2 0x11F9 JUMPI RETURNDATASIZE PUSH0 DUP1 RETURNDATACOPY RETURNDATASIZE PUSH0 REVERT JUMPDEST POP POP POP POP PUSH1 0x40 MLOAD RETURNDATASIZE PUSH1 0x1F NOT PUSH1 0x1F DUP3 ADD AND DUP3 ADD DUP1 PUSH1 0x40 MSTORE POP DUP2 ADD SWAP1 PUSH2 0x121D SWAP2 SWAP1 PUSH2 0x1FEE JUMP JUMPDEST POP DUP4 DUP4 PUSH1 0x2 ADD PUSH0 DUP3 DUP3 SLOAD PUSH2 0x1231 SWAP2 SWAP1 PUSH2 0x2079 JUMP JUMPDEST SWAP3 POP POP DUP2 SWAP1 SSTORE POP DUP4 DUP3 PUSH0 ADD PUSH0 DUP3 DUP3 SLOAD PUSH2 0x124A SWAP2 SWAP1 PUSH2 0x2079 JUMP JUMPDEST SWAP3 POP POP DUP2 SWAP1 SSTORE POP TIMESTAMP DUP3 PUSH1 0x1 ADD DUP2 SWAP1 SSTORE POP PUSH1 0x3C DUP4 PUSH1 0x4 ADD SLOAD PUSH2 0x126B SWAP2 SWAP1 PUSH2 0x236F JUMP JUMPDEST TIMESTAMP PUSH2 0x1276 SWAP2 SWAP1 PUSH2 0x2079 JUMP JUMPDEST DUP3 PUSH1 0x2 ADD DUP2 SWAP1 SSTORE POP DUP4 PUSH1 0x6 PUSH0 DUP6 PUSH0 ADD PUSH0 SWAP1 SLOAD SWAP1 PUSH2 0x100 EXP SWAP1 DIV PUSH20 0xFFFFFFFFFFFFFFFFFFFFFFFFFFFFFFFFFFFFFFFF AND PUSH20 0xFFFFFFFFFFFFFFFFFFFFFFFFFFFFFFFFFFFFFFFF AND PUSH20 0xFFFFFFFFFFFFFFFFFFFFFFFFFFFFFFFFFFFFFFFF AND DUP2 MSTORE PUSH1 0x20 ADD SWAP1 DUP2 MSTORE PUSH1 0x20 ADD PUSH0 KECCAK256 PUSH0 DUP3 DUP3 SLOAD PUSH2 0x12EC SWAP2 SWAP1 PUSH2 0x2079 JUMP JUMPDEST SWAP3 POP POP DUP2 SWAP1 SSTORE POP PUSH2 0x1334 DUP6 DUP6 CALLER PUSH1 0x40 MLOAD DUP1 PUSH1 0x40 ADD PUSH1 0x40 MSTORE DUP1 PUSH1 0x7 DUP2 MSTORE PUSH1 0x20 ADD PUSH32 0x4465706F73697400000000000000000000000000000000000000000000000000 DUP2 MSTORE POP PUSH2 0x153C JUMP JUMPDEST POP JUMPDEST POP POP PUSH2 0x1340 PUSH2 0x1621 JUMP JUMPDEST POP POP JUMP JUMPDEST PUSH2 0x134C PUSH2 0x13CE JUMP JUMPDEST PUSH0 PUSH20 0xFFFFFFFFFFFFFFFFFFFFFFFFFFFFFFFFFFFFFFFF AND DUP2 PUSH20 0xFFFFFFFFFFFFFFFFFFFFFFFFFFFFFFFFFFFFFFFF AND SUB PUSH2 0x13BC JUMPI PUSH0 PUSH1 0x40 MLOAD PUSH32 0x1E4FBDF700000000000000000000000000000000000000000000000000000000 DUP2 MSTORE PUSH1 0x4 ADD PUSH2 0x13B3 SWAP2 SWAP1 PUSH2 0x1C3B JUMP JUMPDEST PUSH1 0x40 MLOAD DUP1 SWAP2 SUB SWAP1 REVERT JUMPDEST PUSH2 0x13C5 DUP2 PUSH2 0x162A JUMP JUMPDEST POP JUMP JUMPDEST PUSH1 0x4 SLOAD DUP2 JUMP JUMPDEST PUSH2 0x13D6 PUSH2 0x176A JUMP JUMPDEST PUSH20 0xFFFFFFFFFFFFFFFFFFFFFFFFFFFFFFFFFFFFFFFF AND PUSH2 0x13F4 PUSH2 0xA28 JUMP JUMPDEST PUSH20 0xFFFFFFFFFFFFFFFFFFFFFFFFFFFFFFFFFFFFFFFF AND EQ PUSH2 0x1453 JUMPI PUSH2 0x1417 PUSH2 0x176A JUMP JUMPDEST PUSH1 0x40 MLOAD PUSH32 0x118CDAA700000000000000000000000000000000000000000000000000000000 DUP2 MSTORE PUSH1 0x4 ADD PUSH2 0x144A SWAP2 SWAP1 PUSH2 0x1C3B JUMP JUMPDEST PUSH1 0x40 MLOAD DUP1 SWAP2 SUB SWAP1 REVERT JUMPDEST JUMP JUMPDEST PUSH1 0x2 PUSH1 0x1 SLOAD SUB PUSH2 0x149A JUMPI PUSH1 0x40 MLOAD PUSH32 0x8C379A000000000000000000000000000000000000000000000000000000000 DUP2 MSTORE PUSH1 0x4 ADD PUSH2 0x1491 SWAP1 PUSH2 0x23FA JUMP JUMPDEST PUSH1 0x40 MLOAD DUP1 SWAP2 SUB SWAP1 REVERT JUMPDEST PUSH1 0x2 PUSH1 0x1 DUP2 SWAP1 SSTORE POP JUMP JUMPDEST PUSH0 DUP1 PUSH1 0x5 DUP4 DUP2 SLOAD DUP2 LT PUSH2 0x14BA JUMPI PUSH2 0x14B9 PUSH2 0x1E6F JUMP JUMPDEST JUMPDEST SWAP1 PUSH0 MSTORE PUSH1 0x20 PUSH0 KECCAK256 SWAP1 PUSH1 0x5 MUL ADD SWAP1 POP PUSH0 PUSH1 0x3C DUP6 PUSH1 0x1 ADD SLOAD TIMESTAMP PUSH2 0x14DB SWAP2 SWAP1 PUSH2 0x2046 JUMP JUMPDEST PUSH2 0x14E5 SWAP2 SWAP1 PUSH2 0x2445 JUMP JUMPDEST SWAP1 POP DUP2 PUSH1 0x4 ADD SLOAD DUP2 GT ISZERO PUSH2 0x14FB JUMPI DUP2 PUSH1 0x4 ADD SLOAD SWAP1 POP JUMPDEST DUP2 PUSH1 0x3 ADD SLOAD PUSH1 0x64 PUSH2 0x16D DUP4 DUP9 PUSH0 ADD SLOAD PUSH2 0x1514 SWAP2 SWAP1 PUSH2 0x236F JUMP JUMPDEST PUSH2 0x151E SWAP2 SWAP1 PUSH2 0x2445 JUMP JUMPDEST PUSH2 0x1528 SWAP2 SWAP1 PUSH2 0x2445 JUMP JUMPDEST PUSH2 0x1532 SWAP2 SWAP1 PUSH2 0x236F JUMP JUMPDEST SWAP3 POP POP POP SWAP3 SWAP2 POP POP JUMP JUMPDEST PUSH1 0x8 PUSH1 0x40 MLOAD DUP1 PUSH1 0xA0 ADD PUSH1 0x40 MSTORE DUP1 DUP7 DUP2 MSTORE PUSH1 0x20 ADD DUP6 DUP2 MSTORE PUSH1 0x20 ADD DUP5 PUSH20 0xFFFFFFFFFFFFFFFFFFFFFFFFFFFFFFFFFFFFFFFF AND DUP2 MSTORE PUSH1 0x20 ADD DUP4 DUP2 MSTORE PUSH1 0x20 ADD TIMESTAMP DUP2 MSTORE POP SWAP1 DUP1 PUSH1 0x1 DUP2 SLOAD ADD DUP1 DUP3 SSTORE DUP1 SWAP2 POP POP PUSH1 0x1 SWAP1 SUB SWAP1 PUSH0 MSTORE PUSH1 0x20 PUSH0 KECCAK256 SWAP1 PUSH1 0x5 MUL ADD PUSH0 SWAP1 SWAP2 SWAP1 SWAP2 SWAP1 SWAP2 POP PUSH0 DUP3 ADD MLOAD DUP2 PUSH0 ADD SSTORE PUSH1 0x20 DUP3 ADD MLOAD DUP2 PUSH1 0x1 ADD SSTORE PUSH1 0x40 DUP3 ADD MLOAD DUP2 PUSH1 0x2 ADD PUSH0 PUSH2 0x100 EXP DUP2 SLOAD DUP2 PUSH20 0xFFFFFFFFFFFFFFFFFFFFFFFFFFFFFFFFFFFFFFFF MUL NOT AND SWAP1 DUP4 PUSH20 0xFFFFFFFFFFFFFFFFFFFFFFFFFFFFFFFFFFFFFFFF AND MUL OR SWAP1 SSTORE POP PUSH1 0x60 DUP3 ADD MLOAD DUP2 PUSH1 0x3 ADD SWAP1 DUP2 PUSH2 0x160E SWAP2 SWAP1 PUSH2 0x2636 JUMP JUMPDEST POP PUSH1 0x80 DUP3 ADD MLOAD DUP2 PUSH1 0x4 ADD SSTORE POP POP POP POP POP POP JUMP JUMPDEST PUSH1 0x1 DUP1 DUP2 SWAP1 SSTORE POP JUMP JUMPDEST PUSH0 DUP1 PUSH0 SWAP1 SLOAD SWAP1 PUSH2 0x100 EXP SWAP1 DIV PUSH20 0xFFFFFFFFFFFFFFFFFFFFFFFFFFFFFFFFFFFFFFFF AND SWAP1 POP DUP2 PUSH0 DUP1 PUSH2 0x100 EXP DUP2 SLOAD DUP2 PUSH20 0xFFFFFFFFFFFFFFFFFFFFFFFFFFFFFFFFFFFFFFFF MUL NOT AND SWAP1 DUP4 PUSH20 0xFFFFFFFFFFFFFFFFFFFFFFFFFFFFFFFFFFFFFFFF AND MUL OR SWAP1 SSTORE POP DUP2 PUSH20 0xFFFFFFFFFFFFFFFFFFFFFFFFFFFFFFFFFFFFFFFF AND DUP2 PUSH20 0xFFFFFFFFFFFFFFFFFFFFFFFFFFFFFFFFFFFFFFFF AND PUSH32 0x8BE0079C531659141344CD1FD0A4F28419497F9722A3DAAFE3B4186F6B6457E0 PUSH1 0x40 MLOAD PUSH1 0x40 MLOAD DUP1 SWAP2 SUB SWAP1 LOG3 POP POP JUMP JUMPDEST PUSH2 0x1765 DUP4 DUP5 PUSH20 0xFFFFFFFFFFFFFFFFFFFFFFFFFFFFFFFFFFFFFFFF AND PUSH4 0xA9059CBB DUP6 DUP6 PUSH1 0x40 MLOAD PUSH1 0x24 ADD PUSH2 0x171E SWAP3 SWAP2 SWAP1 PUSH2 0x1F92 JUMP JUMPDEST PUSH1 0x40 MLOAD PUSH1 0x20 DUP2 DUP4 SUB SUB DUP2 MSTORE SWAP1 PUSH1 0x40 MSTORE SWAP2 POP PUSH1 0xE0 SHL PUSH1 0x20 DUP3 ADD DUP1 MLOAD PUSH28 0xFFFFFFFFFFFFFFFFFFFFFFFFFFFFFFFFFFFFFFFFFFFFFFFFFFFFFFFF DUP4 DUP2 DUP4 AND OR DUP4 MSTORE POP POP POP POP PUSH2 0x1771 JUMP JUMPDEST POP POP POP JUMP JUMPDEST PUSH0 CALLER SWAP1 POP SWAP1 JUMP JUMPDEST PUSH0 DUP1 PUSH1 0x20 PUSH0 DUP5 MLOAD PUSH1 0x20 DUP7 ADD PUSH0 DUP9 GAS CALL DUP1 PUSH2 0x1790 JUMPI PUSH1 0x40 MLOAD RETURNDATASIZE PUSH0 DUP3 RETURNDATACOPY RETURNDATASIZE DUP2 REVERT JUMPDEST RETURNDATASIZE SWAP3 POP PUSH0 MLOAD SWAP2 POP POP PUSH0 DUP3 EQ PUSH2 0x17A9 JUMPI PUSH1 0x1 DUP2 EQ ISZERO PUSH2 0x17C4 JUMP JUMPDEST PUSH0 DUP5 PUSH20 0xFFFFFFFFFFFFFFFFFFFFFFFFFFFFFFFFFFFFFFFF AND EXTCODESIZE EQ JUMPDEST ISZERO PUSH2 0x1806 JUMPI DUP4 PUSH1 0x40 MLOAD PUSH32 0x5274AFE700000000000000000000000000000000000000000000000000000000 DUP2 MSTORE PUSH1 0x4 ADD PUSH2 0x17FD SWAP2 SWAP1 PUSH2 0x1C3B JUMP JUMPDEST PUSH1 0x40 MLOAD DUP1 SWAP2 SUB SWAP1 REVERT JUMPDEST POP POP POP POP JUMP JUMPDEST PUSH0 DUP1 REVERT JUMPDEST PUSH0 DUP2 SWAP1 POP SWAP2 SWAP1 POP JUMP JUMPDEST PUSH2 0x1822 DUP2 PUSH2 0x1810 JUMP JUMPDEST DUP2 EQ PUSH2 0x182C JUMPI PUSH0 DUP1 REVERT JUMPDEST POP JUMP JUMPDEST PUSH0 DUP2 CALLDATALOAD SWAP1 POP PUSH2 0x183D DUP2 PUSH2 0x1819 JUMP JUMPDEST SWAP3 SWAP2 POP POP JUMP JUMPDEST PUSH0 PUSH1 0x20 DUP3 DUP5 SUB SLT ISZERO PUSH2 0x1858 JUMPI PUSH2 0x1857 PUSH2 0x180C JUMP JUMPDEST JUMPDEST PUSH0 PUSH2 0x1865 DUP5 DUP3 DUP6 ADD PUSH2 0x182F JUMP JUMPDEST SWAP2 POP POP SWAP3 SWAP2 POP POP JUMP JUMPDEST PUSH0 PUSH20 0xFFFFFFFFFFFFFFFFFFFFFFFFFFFFFFFFFFFFFFFF DUP3 AND SWAP1 POP SWAP2 SWAP1 POP JUMP JUMPDEST PUSH0 DUP2 SWAP1 POP SWAP2 SWAP1 POP JUMP JUMPDEST PUSH0 PUSH2 0x18B0 PUSH2 0x18AB PUSH2 0x18A6 DUP5 PUSH2 0x186E JUMP JUMPDEST PUSH2 0x188D JUMP JUMPDEST PUSH2 0x186E JUMP JUMPDEST SWAP1 POP SWAP2 SWAP1 POP JUMP JUMPDEST PUSH0 PUSH2 0x18C1 DUP3 PUSH2 0x1896 JUMP JUMPDEST SWAP1 POP SWAP2 SWAP1 POP JUMP JUMPDEST PUSH0 PUSH2 0x18D2 DUP3 PUSH2 0x18B7 JUMP JUMPDEST SWAP1 POP SWAP2 SWAP1 POP JUMP JUMPDEST PUSH2 0x18E2 DUP2 PUSH2 0x18C8 JUMP JUMPDEST DUP3 MSTORE POP POP JUMP JUMPDEST PUSH2 0x18F1 DUP2 PUSH2 0x1810 JUMP JUMPDEST DUP3 MSTORE POP POP JUMP JUMPDEST PUSH0 PUSH1 0xA0 DUP3 ADD SWAP1 POP PUSH2 0x190A PUSH0 DUP4 ADD DUP9 PUSH2 0x18D9 JUMP JUMPDEST PUSH2 0x1917 PUSH1 0x20 DUP4 ADD DUP8 PUSH2 0x18D9 JUMP JUMPDEST PUSH2 0x1924 PUSH1 0x40 DUP4 ADD DUP7 PUSH2 0x18E8 JUMP JUMPDEST PUSH2 0x1931 PUSH1 0x60 DUP4 ADD DUP6 PUSH2 0x18E8 JUMP JUMPDEST PUSH2 0x193E PUSH1 0x80 DUP4 ADD DUP5 PUSH2 0x18E8 JUMP JUMPDEST SWAP7 SWAP6 POP POP POP POP POP POP JUMP JUMPDEST PUSH0 DUP2 MLOAD SWAP1 POP SWAP2 SWAP1 POP JUMP JUMPDEST PUSH0 DUP3 DUP3 MSTORE PUSH1 0x20 DUP3 ADD SWAP1 POP SWAP3 SWAP2 POP POP JUMP JUMPDEST PUSH0 DUP2 SWAP1 POP PUSH1 0x20 DUP3 ADD SWAP1 POP SWAP2 SWAP1 POP JUMP JUMPDEST PUSH2 0x197A DUP2 PUSH2 0x1810 JUMP JUMPDEST DUP3 MSTORE POP POP JUMP JUMPDEST PUSH0 PUSH2 0x198A DUP3 PUSH2 0x186E JUMP JUMPDEST SWAP1 POP SWAP2 SWAP1 POP JUMP JUMPDEST PUSH2 0x199A DUP2 PUSH2 0x1980 JUMP JUMPDEST DUP3 MSTORE POP POP JUMP JUMPDEST PUSH0 DUP2 MLOAD SWAP1 POP SWAP2 SWAP1 POP JUMP JUMPDEST PUSH0 DUP3 DUP3 MSTORE PUSH1 0x20 DUP3 ADD SWAP1 POP SWAP3 SWAP2 POP POP JUMP JUMPDEST DUP3 DUP2 DUP4 MCOPY PUSH0 DUP4 DUP4 ADD MSTORE POP POP POP JUMP JUMPDEST PUSH0 PUSH1 0x1F NOT PUSH1 0x1F DUP4 ADD AND SWAP1 POP SWAP2 SWAP1 POP JUMP JUMPDEST PUSH0 PUSH2 0x19E2 DUP3 PUSH2 0x19A0 JUMP JUMPDEST PUSH2 0x19EC DUP2 DUP6 PUSH2 0x19AA JUMP JUMPDEST SWAP4 POP PUSH2 0x19FC DUP2 DUP6 PUSH1 0x20 DUP7 ADD PUSH2 0x19BA JUMP JUMPDEST PUSH2 0x1A05 DUP2 PUSH2 0x19C8 JUMP JUMPDEST DUP5 ADD SWAP2 POP POP SWAP3 SWAP2 POP POP JUMP JUMPDEST PUSH0 PUSH1 0xA0 DUP4 ADD PUSH0 DUP4 ADD MLOAD PUSH2 0x1A25 PUSH0 DUP7 ADD DUP3 PUSH2 0x1971 JUMP JUMPDEST POP PUSH1 0x20 DUP4 ADD MLOAD PUSH2 0x1A38 PUSH1 0x20 DUP7 ADD DUP3 PUSH2 0x1971 JUMP JUMPDEST POP PUSH1 0x40 DUP4 ADD MLOAD PUSH2 0x1A4B PUSH1 0x40 DUP7 ADD DUP3 PUSH2 0x1991 JUMP JUMPDEST POP PUSH1 0x60 DUP4 ADD MLOAD DUP5 DUP3 SUB PUSH1 0x60 DUP7 ADD MSTORE PUSH2 0x1A63 DUP3 DUP3 PUSH2 0x19D8 JUMP JUMPDEST SWAP2 POP POP PUSH1 0x80 DUP4 ADD MLOAD PUSH2 0x1A78 PUSH1 0x80 DUP7 ADD DUP3 PUSH2 0x1971 JUMP JUMPDEST POP DUP1 SWAP2 POP POP SWAP3 SWAP2 POP POP JUMP JUMPDEST PUSH0 PUSH2 0x1A8E DUP4 DUP4 PUSH2 0x1A10 JUMP JUMPDEST SWAP1 POP SWAP3 SWAP2 POP POP JUMP JUMPDEST PUSH0 PUSH1 0x20 DUP3 ADD SWAP1 POP SWAP2 SWAP1 POP JUMP JUMPDEST PUSH0 PUSH2 0x1AAC DUP3 PUSH2 0x1948 JUMP JUMPDEST PUSH2 0x1AB6 DUP2 DUP6 PUSH2 0x1952 JUMP JUMPDEST SWAP4 POP DUP4 PUSH1 0x20 DUP3 MUL DUP6 ADD PUSH2 0x1AC8 DUP6 PUSH2 0x1962 JUMP JUMPDEST DUP1 PUSH0 JUMPDEST DUP6 DUP2 LT ISZERO PUSH2 0x1B03 JUMPI DUP5 DUP5 SUB DUP10 MSTORE DUP2 MLOAD PUSH2 0x1AE4 DUP6 DUP3 PUSH2 0x1A83 JUMP JUMPDEST SWAP5 POP PUSH2 0x1AEF DUP4 PUSH2 0x1A96 JUMP JUMPDEST SWAP3 POP PUSH1 0x20 DUP11 ADD SWAP10 POP POP PUSH1 0x1 DUP2 ADD SWAP1 POP PUSH2 0x1ACB JUMP JUMPDEST POP DUP3 SWAP8 POP DUP8 SWAP6 POP POP POP POP POP POP SWAP3 SWAP2 POP POP JUMP JUMPDEST PUSH0 PUSH1 0x20 DUP3 ADD SWAP1 POP DUP2 DUP2 SUB PUSH0 DUP4 ADD MSTORE PUSH2 0x1B2D DUP2 DUP5 PUSH2 0x1AA2 JUMP JUMPDEST SWAP1 POP SWAP3 SWAP2 POP POP JUMP JUMPDEST PUSH2 0x1B3E DUP2 PUSH2 0x1980 JUMP JUMPDEST DUP3 MSTORE POP POP JUMP JUMPDEST PUSH0 DUP3 DUP3 MSTORE PUSH1 0x20 DUP3 ADD SWAP1 POP SWAP3 SWAP2 POP POP JUMP JUMPDEST PUSH0 PUSH2 0x1B5E DUP3 PUSH2 0x19A0 JUMP JUMPDEST PUSH2 0x1B68 DUP2 DUP6 PUSH2 0x1B44 JUMP JUMPDEST SWAP4 POP PUSH2 0x1B78 DUP2 DUP6 PUSH1 0x20 DUP7 ADD PUSH2 0x19BA JUMP JUMPDEST PUSH2 0x1B81 DUP2 PUSH2 0x19C8 JUMP JUMPDEST DUP5 ADD SWAP2 POP POP SWAP3 SWAP2 POP POP JUMP JUMPDEST PUSH0 PUSH1 0xA0 DUP3 ADD SWAP1 POP PUSH2 0x1B9F PUSH0 DUP4 ADD DUP9 PUSH2 0x18E8 JUMP JUMPDEST PUSH2 0x1BAC PUSH1 0x20 DUP4 ADD DUP8 PUSH2 0x18E8 JUMP JUMPDEST PUSH2 0x1BB9 PUSH1 0x40 DUP4 ADD DUP7 PUSH2 0x1B35 JUMP JUMPDEST DUP2 DUP2 SUB PUSH1 0x60 DUP4 ADD MSTORE PUSH2 0x1BCB DUP2 DUP6 PUSH2 0x1B54 JUMP JUMPDEST SWAP1 POP PUSH2 0x1BDA PUSH1 0x80 DUP4 ADD DUP5 PUSH2 0x18E8 JUMP JUMPDEST SWAP7 SWAP6 POP POP POP POP POP POP JUMP JUMPDEST PUSH0 DUP1 PUSH1 0x40 DUP4 DUP6 SUB SLT ISZERO PUSH2 0x1BFA JUMPI PUSH2 0x1BF9 PUSH2 0x180C JUMP JUMPDEST JUMPDEST PUSH0 PUSH2 0x1C07 DUP6 DUP3 DUP7 ADD PUSH2 0x182F JUMP JUMPDEST SWAP3 POP POP PUSH1 0x20 PUSH2 0x1C18 DUP6 DUP3 DUP7 ADD PUSH2 0x182F JUMP JUMPDEST SWAP2 POP POP SWAP3 POP SWAP3 SWAP1 POP JUMP JUMPDEST PUSH0 PUSH1 0x20 DUP3 ADD SWAP1 POP PUSH2 0x1C35 PUSH0 DUP4 ADD DUP5 PUSH2 0x18D9 JUMP JUMPDEST SWAP3 SWAP2 POP POP JUMP JUMPDEST PUSH0 PUSH1 0x20 DUP3 ADD SWAP1 POP PUSH2 0x1C4E PUSH0 DUP4 ADD DUP5 PUSH2 0x1B35 JUMP JUMPDEST SWAP3 SWAP2 POP POP JUMP JUMPDEST PUSH2 0x1C5D DUP2 PUSH2 0x1980 JUMP JUMPDEST DUP2 EQ PUSH2 0x1C67 JUMPI PUSH0 DUP1 REVERT JUMPDEST POP JUMP JUMPDEST PUSH0 DUP2 CALLDATALOAD SWAP1 POP PUSH2 0x1C78 DUP2 PUSH2 0x1C54 JUMP JUMPDEST SWAP3 SWAP2 POP POP JUMP JUMPDEST PUSH0 PUSH1 0x20 DUP3 DUP5 SUB SLT ISZERO PUSH2 0x1C93 JUMPI PUSH2 0x1C92 PUSH2 0x180C JUMP JUMPDEST JUMPDEST PUSH0 PUSH2 0x1CA0 DUP5 DUP3 DUP6 ADD PUSH2 0x1C6A JUMP JUMPDEST SWAP2 POP POP SWAP3 SWAP2 POP POP JUMP JUMPDEST PUSH0 PUSH1 0x20 DUP3 ADD SWAP1 POP PUSH2 0x1CBC PUSH0 DUP4 ADD DUP5 PUSH2 0x18E8 JUMP JUMPDEST SWAP3 SWAP2 POP POP JUMP JUMPDEST PUSH0 DUP1 PUSH1 0x40 DUP4 DUP6 SUB SLT ISZERO PUSH2 0x1CD8 JUMPI PUSH2 0x1CD7 PUSH2 0x180C JUMP JUMPDEST JUMPDEST PUSH0 PUSH2 0x1CE5 DUP6 DUP3 DUP7 ADD PUSH2 0x182F JUMP JUMPDEST SWAP3 POP POP PUSH1 0x20 PUSH2 0x1CF6 DUP6 DUP3 DUP7 ADD PUSH2 0x1C6A JUMP JUMPDEST SWAP2 POP POP SWAP3 POP SWAP3 SWAP1 POP JUMP JUMPDEST PUSH0 PUSH1 0x60 DUP3 ADD SWAP1 POP PUSH2 0x1D13 PUSH0 DUP4 ADD DUP7 PUSH2 0x18E8 JUMP JUMPDEST PUSH2 0x1D20 PUSH1 0x20 DUP4 ADD DUP6 PUSH2 0x18E8 JUMP JUMPDEST PUSH2 0x1D2D PUSH1 0x40 DUP4 ADD DUP5 PUSH2 0x18E8 JUMP JUMPDEST SWAP5 SWAP4 POP POP POP POP JUMP JUMPDEST PUSH0 PUSH2 0x1D3F DUP3 PUSH2 0x1980 JUMP JUMPDEST SWAP1 POP SWAP2 SWAP1 POP JUMP JUMPDEST PUSH2 0x1D4F DUP2 PUSH2 0x1D35 JUMP JUMPDEST DUP2 EQ PUSH2 0x1D59 JUMPI PUSH0 DUP1 REVERT JUMPDEST POP JUMP JUMPDEST PUSH0 DUP2 CALLDATALOAD SWAP1 POP PUSH2 0x1D6A DUP2 PUSH2 0x1D46 JUMP JUMPDEST SWAP3 SWAP2 POP POP JUMP JUMPDEST PUSH0 DUP1 PUSH0 DUP1 PUSH1 0x80 DUP6 DUP8 SUB SLT ISZERO PUSH2 0x1D88 JUMPI PUSH2 0x1D87 PUSH2 0x180C JUMP JUMPDEST JUMPDEST PUSH0 PUSH2 0x1D95 DUP8 DUP3 DUP9 ADD PUSH2 0x1D5C JUMP JUMPDEST SWAP5 POP POP PUSH1 0x20 PUSH2 0x1DA6 DUP8 DUP3 DUP9 ADD PUSH2 0x1D5C JUMP JUMPDEST SWAP4 POP POP PUSH1 0x40 PUSH2 0x1DB7 DUP8 DUP3 DUP9 ADD PUSH2 0x182F JUMP JUMPDEST SWAP3 POP POP PUSH1 0x60 PUSH2 0x1DC8 DUP8 DUP3 DUP9 ADD PUSH2 0x182F JUMP JUMPDEST SWAP2 POP POP SWAP3 SWAP6 SWAP2 SWAP5 POP SWAP3 POP JUMP JUMPDEST PUSH0 DUP1 PUSH1 0x40 DUP4 DUP6 SUB SLT ISZERO PUSH2 0x1DEA JUMPI PUSH2 0x1DE9 PUSH2 0x180C JUMP JUMPDEST JUMPDEST PUSH0 PUSH2 0x1DF7 DUP6 DUP3 DUP7 ADD PUSH2 0x1C6A JUMP JUMPDEST SWAP3 POP POP PUSH1 0x20 PUSH2 0x1E08 DUP6 DUP3 DUP7 ADD PUSH2 0x182F JUMP JUMPDEST SWAP2 POP POP SWAP3 POP SWAP3 SWAP1 POP JUMP JUMPDEST PUSH32 0x4E487B7100000000000000000000000000000000000000000000000000000000 PUSH0 MSTORE PUSH1 0x22 PUSH1 0x4 MSTORE PUSH1 0x24 PUSH0 REVERT JUMPDEST PUSH0 PUSH1 0x2 DUP3 DIV SWAP1 POP PUSH1 0x1 DUP3 AND DUP1 PUSH2 0x1E56 JUMPI PUSH1 0x7F DUP3 AND SWAP2 POP JUMPDEST PUSH1 0x20 DUP3 LT DUP2 SUB PUSH2 0x1E69 JUMPI PUSH2 0x1E68 PUSH2 0x1E12 JUMP JUMPDEST JUMPDEST POP SWAP2 SWAP1 POP JUMP JUMPDEST PUSH32 0x4E487B7100000000000000000000000000000000000000000000000000000000 PUSH0 MSTORE PUSH1 0x32 PUSH1 0x4 MSTORE PUSH1 0x24 PUSH0 REVERT JUMPDEST PUSH32 0x57696474686472617720616D6F756E7420657863656564207468652062616C61 PUSH0 DUP3 ADD MSTORE PUSH32 0x6E63650000000000000000000000000000000000000000000000000000000000 PUSH1 0x20 DUP3 ADD MSTORE POP JUMP JUMPDEST PUSH0 PUSH2 0x1EF6 PUSH1 0x23 DUP4 PUSH2 0x1B44 JUMP JUMPDEST SWAP2 POP PUSH2 0x1F01 DUP3 PUSH2 0x1E9C JUMP JUMPDEST PUSH1 0x40 DUP3 ADD SWAP1 POP SWAP2 SWAP1 POP JUMP JUMPDEST PUSH0 PUSH1 0x20 DUP3 ADD SWAP1 POP DUP2 DUP2 SUB PUSH0 DUP4 ADD MSTORE PUSH2 0x1F23 DUP2 PUSH2 0x1EEA JUMP JUMPDEST SWAP1 POP SWAP2 SWAP1 POP JUMP JUMPDEST PUSH32 0x4C6F636B206973207374696C6C20416374697665000000000000000000000000 PUSH0 DUP3 ADD MSTORE POP JUMP JUMPDEST PUSH0 PUSH2 0x1F5E PUSH1 0x14 DUP4 PUSH2 0x1B44 JUMP JUMPDEST SWAP2 POP PUSH2 0x1F69 DUP3 PUSH2 0x1F2A JUMP JUMPDEST PUSH1 0x20 DUP3 ADD SWAP1 POP SWAP2 SWAP1 POP JUMP JUMPDEST PUSH0 PUSH1 0x20 DUP3 ADD SWAP1 POP DUP2 DUP2 SUB PUSH0 DUP4 ADD MSTORE PUSH2 0x1F8B DUP2 PUSH2 0x1F52 JUMP JUMPDEST SWAP1 POP SWAP2 SWAP1 POP JUMP JUMPDEST PUSH0 PUSH1 0x40 DUP3 ADD SWAP1 POP PUSH2 0x1FA5 PUSH0 DUP4 ADD DUP6 PUSH2 0x1B35 JUMP JUMPDEST PUSH2 0x1FB2 PUSH1 0x20 DUP4 ADD DUP5 PUSH2 0x18E8 JUMP JUMPDEST SWAP4 SWAP3 POP POP POP JUMP JUMPDEST PUSH0 DUP2 ISZERO ISZERO SWAP1 POP SWAP2 SWAP1 POP JUMP JUMPDEST PUSH2 0x1FCD DUP2 PUSH2 0x1FB9 JUMP JUMPDEST DUP2 EQ PUSH2 0x1FD7 JUMPI PUSH0 DUP1 REVERT JUMPDEST POP JUMP JUMPDEST PUSH0 DUP2 MLOAD SWAP1 POP PUSH2 0x1FE8 DUP2 PUSH2 0x1FC4 JUMP JUMPDEST SWAP3 SWAP2 POP POP JUMP JUMPDEST PUSH0 PUSH1 0x20 DUP3 DUP5 SUB SLT ISZERO PUSH2 0x2003 JUMPI PUSH2 0x2002 PUSH2 0x180C JUMP JUMPDEST JUMPDEST PUSH0 PUSH2 0x2010 DUP5 DUP3 DUP6 ADD PUSH2 0x1FDA JUMP JUMPDEST SWAP2 POP POP SWAP3 SWAP2 POP POP JUMP JUMPDEST PUSH32 0x4E487B7100000000000000000000000000000000000000000000000000000000 PUSH0 MSTORE PUSH1 0x11 PUSH1 0x4 MSTORE PUSH1 0x24 PUSH0 REVERT JUMPDEST PUSH0 PUSH2 0x2050 DUP3 PUSH2 0x1810 JUMP JUMPDEST SWAP2 POP PUSH2 0x205B DUP4 PUSH2 0x1810 JUMP JUMPDEST SWAP3 POP DUP3 DUP3 SUB SWAP1 POP DUP2 DUP2 GT ISZERO PUSH2 0x2073 JUMPI PUSH2 0x2072 PUSH2 0x2019 JUMP JUMPDEST JUMPDEST SWAP3 SWAP2 POP POP JUMP JUMPDEST PUSH0 PUSH2 0x2083 DUP3 PUSH2 0x1810 JUMP JUMPDEST SWAP2 POP PUSH2 0x208E DUP4 PUSH2 0x1810 JUMP JUMPDEST SWAP3 POP DUP3 DUP3 ADD SWAP1 POP DUP1 DUP3 GT ISZERO PUSH2 0x20A6 JUMPI PUSH2 0x20A5 PUSH2 0x2019 JUMP JUMPDEST JUMPDEST SWAP3 SWAP2 POP POP JUMP JUMPDEST PUSH32 0x4C6F636B206973207374696C6C20616374697665000000000000000000000000 PUSH0 DUP3 ADD MSTORE POP JUMP JUMPDEST PUSH0 PUSH2 0x20E0 PUSH1 0x14 DUP4 PUSH2 0x1B44 JUMP JUMPDEST SWAP2 POP PUSH2 0x20EB DUP3 PUSH2 0x20AC JUMP JUMPDEST PUSH1 0x20 DUP3 ADD SWAP1 POP SWAP2 SWAP1 POP JUMP JUMPDEST PUSH0 PUSH1 0x20 DUP3 ADD SWAP1 POP DUP2 DUP2 SUB PUSH0 DUP4 ADD MSTORE PUSH2 0x210D DUP2 PUSH2 0x20D4 JUMP JUMPDEST SWAP1 POP SWAP2 SWAP1 POP JUMP JUMPDEST PUSH32 0x4E6F207265776172647320746F20636C61696D00000000000000000000000000 PUSH0 DUP3 ADD MSTORE POP JUMP JUMPDEST PUSH0 PUSH2 0x2148 PUSH1 0x13 DUP4 PUSH2 0x1B44 JUMP JUMPDEST SWAP2 POP PUSH2 0x2153 DUP3 PUSH2 0x2114 JUMP JUMPDEST PUSH1 0x20 DUP3 ADD SWAP1 POP SWAP2 SWAP1 POP JUMP JUMPDEST PUSH0 PUSH1 0x20 DUP3 ADD SWAP1 POP DUP2 DUP2 SUB PUSH0 DUP4 ADD MSTORE PUSH2 0x2175 DUP2 PUSH2 0x213C JUMP JUMPDEST SWAP1 POP SWAP2 SWAP1 POP JUMP JUMPDEST PUSH0 PUSH2 0x2186 DUP3 PUSH2 0x1810 JUMP JUMPDEST SWAP2 POP PUSH32 0xFFFFFFFFFFFFFFFFFFFFFFFFFFFFFFFFFFFFFFFFFFFFFFFFFFFFFFFFFFFFFFFF DUP3 SUB PUSH2 0x21B8 JUMPI PUSH2 0x21B7 PUSH2 0x2019 JUMP JUMPDEST JUMPDEST PUSH1 0x1 DUP3 ADD SWAP1 POP SWAP2 SWAP1 POP JUMP JUMPDEST PUSH0 DUP2 MLOAD SWAP1 POP PUSH2 0x21D1 DUP2 PUSH2 0x1819 JUMP JUMPDEST SWAP3 SWAP2 POP POP JUMP JUMPDEST PUSH0 PUSH1 0x20 DUP3 DUP5 SUB SLT ISZERO PUSH2 0x21EC JUMPI PUSH2 0x21EB PUSH2 0x180C JUMP JUMPDEST JUMPDEST PUSH0 PUSH2 0x21F9 DUP5 DUP3 DUP6 ADD PUSH2 0x21C3 JUMP JUMPDEST SWAP2 POP POP SWAP3 SWAP2 POP POP JUMP JUMPDEST PUSH32 0x416D6F756E7420657863656564732062616C616E636500000000000000000000 PUSH0 DUP3 ADD MSTORE POP JUMP JUMPDEST PUSH0 PUSH2 0x2236 PUSH1 0x16 DUP4 PUSH2 0x1B44 JUMP JUMPDEST SWAP2 POP PUSH2 0x2241 DUP3 PUSH2 0x2202 JUMP JUMPDEST PUSH1 0x20 DUP3 ADD SWAP1 POP SWAP2 SWAP1 POP JUMP JUMPDEST PUSH0 PUSH1 0x20 DUP3 ADD SWAP1 POP DUP2 DUP2 SUB PUSH0 DUP4 ADD MSTORE PUSH2 0x2263 DUP2 PUSH2 0x222A JUMP JUMPDEST SWAP1 POP SWAP2 SWAP1 POP JUMP JUMPDEST PUSH32 0x43616E2774207769746864726177206465706F736974656420746F6B656E0000 PUSH0 DUP3 ADD MSTORE POP JUMP JUMPDEST PUSH0 PUSH2 0x229E PUSH1 0x1E DUP4 PUSH2 0x1B44 JUMP JUMPDEST SWAP2 POP PUSH2 0x22A9 DUP3 PUSH2 0x226A JUMP JUMPDEST PUSH1 0x20 DUP3 ADD SWAP1 POP SWAP2 SWAP1 POP JUMP JUMPDEST PUSH0 PUSH1 0x20 DUP3 ADD SWAP1 POP DUP2 DUP2 SUB PUSH0 DUP4 ADD MSTORE PUSH2 0x22CB DUP2 PUSH2 0x2292 JUMP JUMPDEST SWAP1 POP SWAP2 SWAP1 POP JUMP JUMPDEST PUSH32 0x416D6F756E742073686F756C642062652067726561746572207468616E203000 PUSH0 DUP3 ADD MSTORE POP JUMP JUMPDEST PUSH0 PUSH2 0x2306 PUSH1 0x1F DUP4 PUSH2 0x1B44 JUMP JUMPDEST SWAP2 POP PUSH2 0x2311 DUP3 PUSH2 0x22D2 JUMP JUMPDEST PUSH1 0x20 DUP3 ADD SWAP1 POP SWAP2 SWAP1 POP JUMP JUMPDEST PUSH0 PUSH1 0x20 DUP3 ADD SWAP1 POP DUP2 DUP2 SUB PUSH0 DUP4 ADD MSTORE PUSH2 0x2333 DUP2 PUSH2 0x22FA JUMP JUMPDEST SWAP1 POP SWAP2 SWAP1 POP JUMP JUMPDEST PUSH0 PUSH1 0x60 DUP3 ADD SWAP1 POP PUSH2 0x234D PUSH0 DUP4 ADD DUP7 PUSH2 0x1B35 JUMP JUMPDEST PUSH2 0x235A PUSH1 0x20 DUP4 ADD DUP6 PUSH2 0x1B35 JUMP JUMPDEST PUSH2 0x2367 PUSH1 0x40 DUP4 ADD DUP5 PUSH2 0x18E8 JUMP JUMPDEST SWAP5 SWAP4 POP POP POP POP JUMP JUMPDEST PUSH0 PUSH2 0x2379 DUP3 PUSH2 0x1810 JUMP JUMPDEST SWAP2 POP PUSH2 0x2384 DUP4 PUSH2 0x1810 JUMP JUMPDEST SWAP3 POP DUP3 DUP3 MUL PUSH2 0x2392 DUP2 PUSH2 0x1810 JUMP JUMPDEST SWAP2 POP DUP3 DUP3 DIV DUP5 EQ DUP4 ISZERO OR PUSH2 0x23A9 JUMPI PUSH2 0x23A8 PUSH2 0x2019 JUMP JUMPDEST JUMPDEST POP SWAP3 SWAP2 POP POP JUMP JUMPDEST PUSH32 0x5265656E7472616E637947756172643A207265656E7472616E742063616C6C00 PUSH0 DUP3 ADD MSTORE POP JUMP JUMPDEST PUSH0 PUSH2 0x23E4 PUSH1 0x1F DUP4 PUSH2 0x1B44 JUMP JUMPDEST SWAP2 POP PUSH2 0x23EF DUP3 PUSH2 0x23B0 JUMP JUMPDEST PUSH1 0x20 DUP3 ADD SWAP1 POP SWAP2 SWAP1 POP JUMP JUMPDEST PUSH0 PUSH1 0x20 DUP3 ADD SWAP1 POP DUP2 DUP2 SUB PUSH0 DUP4 ADD MSTORE PUSH2 0x2411 DUP2 PUSH2 0x23D8 JUMP JUMPDEST SWAP1 POP SWAP2 SWAP1 POP JUMP JUMPDEST PUSH32 0x4E487B7100000000000000000000000000000000000000000000000000000000 PUSH0 MSTORE PUSH1 0x12 PUSH1 0x4 MSTORE PUSH1 0x24 PUSH0 REVERT JUMPDEST PUSH0 PUSH2 0x244F DUP3 PUSH2 0x1810 JUMP JUMPDEST SWAP2 POP PUSH2 0x245A DUP4 PUSH2 0x1810 JUMP JUMPDEST SWAP3 POP DUP3 PUSH2 0x246A JUMPI PUSH2 0x2469 PUSH2 0x2418 JUMP JUMPDEST JUMPDEST DUP3 DUP3 DIV SWAP1 POP SWAP3 SWAP2 POP POP JUMP JUMPDEST PUSH32 0x4E487B7100000000000000000000000000000000000000000000000000000000 PUSH0 MSTORE PUSH1 0x41 PUSH1 0x4 MSTORE PUSH1 0x24 PUSH0 REVERT JUMPDEST PUSH0 DUP2 SWAP1 POP DUP2 PUSH0 MSTORE PUSH1 0x20 PUSH0 KECCAK256 SWAP1 POP SWAP2 SWAP1 POP JUMP JUMPDEST PUSH0 PUSH1 0x20 PUSH1 0x1F DUP4 ADD DIV SWAP1 POP SWAP2 SWAP1 POP JUMP JUMPDEST PUSH0 DUP3 DUP3 SHL SWAP1 POP SWAP3 SWAP2 POP POP JUMP JUMPDEST PUSH0 PUSH1 0x8 DUP4 MUL PUSH2 0x24FE PUSH32 0xFFFFFFFFFFFFFFFFFFFFFFFFFFFFFFFFFFFFFFFFFFFFFFFFFFFFFFFFFFFFFFFF DUP3 PUSH2 0x24C3 JUMP JUMPDEST PUSH2 0x2508 DUP7 DUP4 PUSH2 0x24C3 JUMP JUMPDEST SWAP6 POP DUP1 NOT DUP5 AND SWAP4 POP DUP1 DUP7 AND DUP5 OR SWAP3 POP POP POP SWAP4 SWAP3 POP POP POP JUMP JUMPDEST PUSH0 PUSH2 0x253A PUSH2 0x2535 PUSH2 0x2530 DUP5 PUSH2 0x1810 JUMP JUMPDEST PUSH2 0x188D JUMP JUMPDEST PUSH2 0x1810 JUMP JUMPDEST SWAP1 POP SWAP2 SWAP1 POP JUMP JUMPDEST PUSH0 DUP2 SWAP1 POP SWAP2 SWAP1 POP JUMP JUMPDEST PUSH2 0x2553 DUP4 PUSH2 0x2520 JUMP JUMPDEST PUSH2 0x2567 PUSH2 0x255F DUP3 PUSH2 0x2541 JUMP JUMPDEST DUP5 DUP5 SLOAD PUSH2 0x24CF JUMP JUMPDEST DUP3 SSTORE POP POP POP POP JUMP JUMPDEST PUSH0 SWAP1 JUMP JUMPDEST PUSH2 0x257B PUSH2 0x256F JUMP JUMPDEST PUSH2 0x2586 DUP2 DUP5 DUP5 PUSH2 0x254A JUMP JUMPDEST POP POP POP JUMP JUMPDEST JUMPDEST DUP2 DUP2 LT ISZERO PUSH2 0x25A9 JUMPI PUSH2 0x259E PUSH0 DUP3 PUSH2 0x2573 JUMP JUMPDEST PUSH1 0x1 DUP2 ADD SWAP1 POP PUSH2 0x258C JUMP JUMPDEST POP POP JUMP JUMPDEST PUSH1 0x1F DUP3 GT ISZERO PUSH2 0x25EE JUMPI PUSH2 0x25BF DUP2 PUSH2 0x24A2 JUMP JUMPDEST PUSH2 0x25C8 DUP5 PUSH2 0x24B4 JUMP JUMPDEST DUP2 ADD PUSH1 0x20 DUP6 LT ISZERO PUSH2 0x25D7 JUMPI DUP2 SWAP1 POP JUMPDEST PUSH2 0x25EB PUSH2 0x25E3 DUP6 PUSH2 0x24B4 JUMP JUMPDEST DUP4 ADD DUP3 PUSH2 0x258B JUMP JUMPDEST POP POP JUMPDEST POP POP POP JUMP JUMPDEST PUSH0 DUP3 DUP3 SHR SWAP1 POP SWAP3 SWAP2 POP POP JUMP JUMPDEST PUSH0 PUSH2 0x260E PUSH0 NOT DUP5 PUSH1 0x8 MUL PUSH2 0x25F3 JUMP JUMPDEST NOT DUP1 DUP4 AND SWAP2 POP POP SWAP3 SWAP2 POP POP JUMP JUMPDEST PUSH0 PUSH2 0x2626 DUP4 DUP4 PUSH2 0x25FF JUMP JUMPDEST SWAP2 POP DUP3 PUSH1 0x2 MUL DUP3 OR SWAP1 POP SWAP3 SWAP2 POP POP JUMP JUMPDEST PUSH2 0x263F DUP3 PUSH2 0x19A0 JUMP JUMPDEST PUSH8 0xFFFFFFFFFFFFFFFF DUP2 GT ISZERO PUSH2 0x2658 JUMPI PUSH2 0x2657 PUSH2 0x2475 JUMP JUMPDEST JUMPDEST PUSH2 0x2662 DUP3 SLOAD PUSH2 0x1E3F JUMP JUMPDEST PUSH2 0x266D DUP3 DUP3 DUP6 PUSH2 0x25AD JUMP JUMPDEST PUSH0 PUSH1 0x20 SWAP1 POP PUSH1 0x1F DUP4 GT PUSH1 0x1 DUP2 EQ PUSH2 0x269E JUMPI PUSH0 DUP5 ISZERO PUSH2 0x268C JUMPI DUP3 DUP8 ADD MLOAD SWAP1 POP JUMPDEST PUSH2 0x2696 DUP6 DUP3 PUSH2 0x261B JUMP JUMPDEST DUP7 SSTORE POP PUSH2 0x26FD JUMP JUMPDEST PUSH1 0x1F NOT DUP5 AND PUSH2 0x26AC DUP7 PUSH2 0x24A2 JUMP JUMPDEST PUSH0 JUMPDEST DUP3 DUP2 LT ISZERO PUSH2 0x26D3 JUMPI DUP5 DUP10 ADD MLOAD DUP3 SSTORE PUSH1 0x1 DUP3 ADD SWAP2 POP PUSH1 0x20 DUP6 ADD SWAP5 POP PUSH1 0x20 DUP2 ADD SWAP1 POP PUSH2 0x26AE JUMP JUMPDEST DUP7 DUP4 LT ISZERO PUSH2 0x26F0 JUMPI DUP5 DUP10 ADD MLOAD PUSH2 0x26EC PUSH1 0x1F DUP10 AND DUP3 PUSH2 0x25FF JUMP JUMPDEST DUP4 SSTORE POP JUMPDEST PUSH1 0x1 PUSH1 0x2 DUP9 MUL ADD DUP9 SSTORE POP POP POP JUMPDEST POP POP POP POP POP POP JUMP INVALID LOG2 PUSH5 0x6970667358 0x22 SLT KECCAK256 MLOAD PUSH30 0x41AC4EF948F1E3740276C0C4E0B915EE48495102F879A8F9A306FAD68183 PUSH5 0x736F6C6343 STOP ADDMOD BYTE STOP CALLER "
		},
		"gasEstimates": {
			"creation": {
				"codeDepositCost": "2008600",
				"executionCost": "infinite",
				"totalCost": "infinite"
			},
			"external": {
				"addPool(address,address,uint256,uint256)": "infinite",
				"claimReward(uint256)": "infinite",
				"deposit(uint256,uint256)": "infinite",
				"depositedToken(address)": "2825",
				"getNotification()": "infinite",
				"modifyPool(uint256,uint256)": "infinite",
				"notifications(uint256)": "infinite",
				"owner()": "2604",
				"pendingReward(uint256,address)": "infinite",
				"poolCount()": "2535",
				"poolInfo(uint256)": "infinite",
				"renounceOwnership()": "infinite",
				"stakingToken()": "infinite",
				"swap(address,uint256)": "infinite",
				"transferOwnership(address)": "infinite",
				"userInfo(uint256,address)": "infinite",
				"withdraw(uint256,uint256)": "infinite"
			},
			"internal": {
				"_calculatePendingReward(struct StakingDapp.UserInfo storage pointer,uint256)": "infinite",
				"_createNotification(uint256,uint256,address,string memory)": "infinite"
			}
		},
		"methodIdentifiers": {
			"addPool(address,address,uint256,uint256)": "c20632ba",
			"claimReward(uint256)": "ae169a50",
			"deposit(uint256,uint256)": "e2bbb158",
			"depositedToken(address)": "907b503d",
			"getNotification()": "31276cf8",
			"modifyPool(uint256,uint256)": "39739b99",
			"notifications(uint256)": "34c1f944",
			"owner()": "8da5cb5b",
			"pendingReward(uint256,address)": "98969e82",
			"poolCount()": "f525cb68",
			"poolInfo(uint256)": "1526fe27",
			"renounceOwnership()": "715018a6",
			"stakingToken()": "72f702f3",
			"swap(address,uint256)": "d004f0f7",
			"transferOwnership(address)": "f2fde38b",
			"userInfo(uint256,address)": "93f1a40b",
			"withdraw(uint256,uint256)": "441a3e70"
		}
	},
	"abi": [
		{
			"inputs": [
				{
					"internalType": "contract IERC20",
					"name": "_stakingToken",
					"type": "address"
				},
				{
					"internalType": "address",
					"name": "initialOwner",
					"type": "address"
				}
			],
			"stateMutability": "nonpayable",
			"type": "constructor"
		},
		{
			"inputs": [
				{
					"internalType": "address",
					"name": "owner",
					"type": "address"
				}
			],
			"name": "OwnableInvalidOwner",
			"type": "error"
		},
		{
			"inputs": [
				{
					"internalType": "address",
					"name": "account",
					"type": "address"
				}
			],
			"name": "OwnableUnauthorizedAccount",
			"type": "error"
		},
		{
			"inputs": [
				{
					"internalType": "address",
					"name": "token",
					"type": "address"
				}
			],
			"name": "SafeERC20FailedOperation",
			"type": "error"
		},
		{
			"anonymous": false,
			"inputs": [
				{
					"indexed": true,
					"internalType": "address",
					"name": "previousOwner",
					"type": "address"
				},
				{
					"indexed": true,
					"internalType": "address",
					"name": "newOwner",
					"type": "address"
				}
			],
			"name": "OwnershipTransferred",
			"type": "event"
		},
		{
			"inputs": [
				{
					"internalType": "contract IERC20",
					"name": "_depositedToken",
					"type": "address"
				},
				{
					"internalType": "contract IERC20",
					"name": "_rewardToken",
					"type": "address"
				},
				{
					"internalType": "uint256",
					"name": "_apy",
					"type": "uint256"
				},
				{
					"internalType": "uint256",
					"name": "_lockDays",
					"type": "uint256"
				}
			],
			"name": "addPool",
			"outputs": [],
			"stateMutability": "nonpayable",
			"type": "function"
		},
		{
			"inputs": [
				{
					"internalType": "uint256",
					"name": "_poolID",
					"type": "uint256"
				}
			],
			"name": "claimReward",
			"outputs": [],
			"stateMutability": "nonpayable",
			"type": "function"
		},
		{
			"inputs": [
				{
					"internalType": "uint256",
					"name": "_poolID",
					"type": "uint256"
				},
				{
					"internalType": "uint256",
					"name": "_amount",
					"type": "uint256"
				}
			],
			"name": "deposit",
			"outputs": [],
			"stateMutability": "nonpayable",
			"type": "function"
		},
		{
			"inputs": [
				{
					"internalType": "address",
					"name": "",
					"type": "address"
				}
			],
			"name": "depositedToken",
			"outputs": [
				{
					"internalType": "uint256",
					"name": "",
					"type": "uint256"
				}
			],
			"stateMutability": "view",
			"type": "function"
		},
		{
			"inputs": [],
			"name": "getNotification",
			"outputs": [
				{
					"components": [
						{
							"internalType": "uint256",
							"name": "poolID",
							"type": "uint256"
						},
						{
							"internalType": "uint256",
							"name": "amount",
							"type": "uint256"
						},
						{
							"internalType": "address",
							"name": "user",
							"type": "address"
						},
						{
							"internalType": "string",
							"name": "typeOf",
							"type": "string"
						},
						{
							"internalType": "uint256",
							"name": "timestamp",
							"type": "uint256"
						}
					],
					"internalType": "struct StakingDapp.Notification[]",
					"name": "",
					"type": "tuple[]"
				}
			],
			"stateMutability": "view",
			"type": "function"
		},
		{
			"inputs": [
				{
					"internalType": "uint256",
					"name": "_poolID",
					"type": "uint256"
				},
				{
					"internalType": "uint256",
					"name": "_apy",
					"type": "uint256"
				}
			],
			"name": "modifyPool",
			"outputs": [],
			"stateMutability": "nonpayable",
			"type": "function"
		},
		{
			"inputs": [
				{
					"internalType": "uint256",
					"name": "",
					"type": "uint256"
				}
			],
			"name": "notifications",
			"outputs": [
				{
					"internalType": "uint256",
					"name": "poolID",
					"type": "uint256"
				},
				{
					"internalType": "uint256",
					"name": "amount",
					"type": "uint256"
				},
				{
					"internalType": "address",
					"name": "user",
					"type": "address"
				},
				{
					"internalType": "string",
					"name": "typeOf",
					"type": "string"
				},
				{
					"internalType": "uint256",
					"name": "timestamp",
					"type": "uint256"
				}
			],
			"stateMutability": "view",
			"type": "function"
		},
		{
			"inputs": [],
			"name": "owner",
			"outputs": [
				{
					"internalType": "address",
					"name": "",
					"type": "address"
				}
			],
			"stateMutability": "view",
			"type": "function"
		},
		{
			"inputs": [
				{
					"internalType": "uint256",
					"name": "_poolID",
					"type": "uint256"
				},
				{
					"internalType": "address",
					"name": "_user",
					"type": "address"
				}
			],
			"name": "pendingReward",
			"outputs": [
				{
					"internalType": "uint256",
					"name": "",
					"type": "uint256"
				}
			],
			"stateMutability": "view",
			"type": "function"
		},
		{
			"inputs": [],
			"name": "poolCount",
			"outputs": [
				{
					"internalType": "uint256",
					"name": "",
					"type": "uint256"
				}
			],
			"stateMutability": "view",
			"type": "function"
		},
		{
			"inputs": [
				{
					"internalType": "uint256",
					"name": "",
					"type": "uint256"
				}
			],
			"name": "poolInfo",
			"outputs": [
				{
					"internalType": "contract IERC20",
					"name": "depositedToken",
					"type": "address"
				},
				{
					"internalType": "contract IERC20",
					"name": "rewardToken",
					"type": "address"
				},
				{
					"internalType": "uint256",
					"name": "depositedAmount",
					"type": "uint256"
				},
				{
					"internalType": "uint256",
					"name": "apy",
					"type": "uint256"
				},
				{
					"internalType": "uint256",
					"name": "lockDays",
					"type": "uint256"
				}
			],
			"stateMutability": "view",
			"type": "function"
		},
		{
			"inputs": [],
			"name": "renounceOwnership",
			"outputs": [],
			"stateMutability": "nonpayable",
			"type": "function"
		},
		{
			"inputs": [],
			"name": "stakingToken",
			"outputs": [
				{
					"internalType": "contract IERC20",
					"name": "",
					"type": "address"
				}
			],
			"stateMutability": "view",
			"type": "function"
		},
		{
			"inputs": [
				{
					"internalType": "address",
					"name": "token",
					"type": "address"
				},
				{
					"internalType": "uint256",
					"name": "_amount",
					"type": "uint256"
				}
			],
			"name": "swap",
			"outputs": [],
			"stateMutability": "nonpayable",
			"type": "function"
		},
		{
			"inputs": [
				{
					"internalType": "address",
					"name": "newOwner",
					"type": "address"
				}
			],
			"name": "transferOwnership",
			"outputs": [],
			"stateMutability": "nonpayable",
			"type": "function"
		},
		{
			"inputs": [
				{
					"internalType": "uint256",
					"name": "",
					"type": "uint256"
				},
				{
					"internalType": "address",
					"name": "",
					"type": "address"
				}
			],
			"name": "userInfo",
			"outputs": [
				{
					"internalType": "uint256",
					"name": "amount",
					"type": "uint256"
				},
				{
					"internalType": "uint256",
					"name": "lastRewardAt",
					"type": "uint256"
				},
				{
					"internalType": "uint256",
					"name": "lockUntil",
					"type": "uint256"
				}
			],
			"stateMutability": "view",
			"type": "function"
		},
		{
			"inputs": [
				{
					"internalType": "uint256",
					"name": "_poolID",
					"type": "uint256"
				},
				{
					"internalType": "uint256",
					"name": "_amount",
					"type": "uint256"
				}
			],
			"name": "withdraw",
			"outputs": [],
			"stateMutability": "nonpayable",
			"type": "function"
		}
	]
}